{
  "contractName": "Food",
  "abi": [
    {
      "anonymous": false,
      "inputs": [
        {
          "indexed": false,
          "name": "restaurantId",
          "type": "uint256"
        }
      ],
      "name": "newRestaurant",
      "type": "event"
    },
    {
      "anonymous": false,
      "inputs": [
        {
          "indexed": false,
          "name": "orderId",
          "type": "uint256"
        },
        {
          "indexed": false,
          "name": "restaurant",
          "type": "address"
        }
      ],
      "name": "newOrder",
      "type": "event"
    },
    {
      "anonymous": false,
      "inputs": [
        {
          "indexed": false,
          "name": "orderId",
          "type": "uint256"
        },
        {
          "indexed": false,
          "name": "orderer",
          "type": "address"
        }
      ],
      "name": "orderCanceled",
      "type": "event"
    },
    {
      "anonymous": false,
      "inputs": [
        {
          "indexed": false,
          "name": "orderId",
          "type": "uint256"
        },
        {
          "indexed": false,
          "name": "orderer",
          "type": "address"
        }
      ],
      "name": "orderApproved",
      "type": "event"
    },
    {
      "anonymous": false,
      "inputs": [
        {
          "indexed": false,
          "name": "orderId",
          "type": "uint256"
        },
        {
          "indexed": false,
          "name": "deliverer",
          "type": "address"
        },
        {
          "indexed": false,
          "name": "restaurant",
          "type": "address"
        }
      ],
      "name": "orderAccepted",
      "type": "event"
    },
    {
      "anonymous": false,
      "inputs": [
        {
          "indexed": false,
          "name": "orderId",
          "type": "uint256"
        },
        {
          "indexed": false,
          "name": "orderer",
          "type": "address"
        }
      ],
      "name": "orderPickedup",
      "type": "event"
    },
    {
      "constant": false,
      "inputs": [
        {
          "name": "area",
          "type": "string"
        }
      ],
      "name": "addArea",
      "outputs": [],
      "payable": false,
      "stateMutability": "nonpayable",
      "type": "function"
    },
    {
      "constant": true,
      "inputs": [
        {
          "name": "id",
          "type": "uint256"
        }
      ],
      "name": "getArea",
      "outputs": [
        {
          "name": "area",
          "type": "string"
        }
      ],
      "payable": false,
      "stateMutability": "view",
      "type": "function"
    },
    {
      "constant": true,
      "inputs": [],
      "name": "getAreas",
      "outputs": [
        {
          "name": "",
          "type": "string[]"
        }
      ],
      "payable": false,
      "stateMutability": "view",
      "type": "function"
    },
    {
      "constant": false,
      "inputs": [
        {
          "name": "name",
          "type": "string"
        },
        {
          "name": "addr",
          "type": "string"
        },
        {
          "name": "areaId",
          "type": "uint256"
        }
      ],
      "name": "addRestaurant",
      "outputs": [],
      "payable": true,
      "stateMutability": "payable",
      "type": "function"
    },
    {
      "constant": true,
      "inputs": [
        {
          "name": "id",
          "type": "uint256"
        }
      ],
      "name": "getRestaurant",
      "outputs": [
        {
          "name": "name",
          "type": "string"
        },
        {
          "name": "addr",
          "type": "string"
        },
        {
          "name": "areaId",
          "type": "uint256"
        },
        {
          "name": "itemCount",
          "type": "uint256"
        }
      ],
      "payable": false,
      "stateMutability": "view",
      "type": "function"
    },
    {
      "constant": false,
      "inputs": [
        {
          "name": "id",
          "type": "uint256"
        },
        {
          "name": "name",
          "type": "string"
        },
        {
          "name": "price",
          "type": "uint256"
        }
      ],
      "name": "addItem",
      "outputs": [],
      "payable": false,
      "stateMutability": "nonpayable",
      "type": "function"
    },
    {
      "constant": true,
      "inputs": [
        {
          "name": "restId",
          "type": "uint256"
        },
        {
          "name": "itemId",
          "type": "uint256"
        }
      ],
      "name": "getItem",
      "outputs": [
        {
          "name": "name",
          "type": "string"
        },
        {
          "name": "price",
          "type": "uint256"
        }
      ],
      "payable": false,
      "stateMutability": "view",
      "type": "function"
    },
    {
      "constant": false,
      "inputs": [
        {
          "name": "name",
          "type": "string"
        },
        {
          "name": "addr",
          "type": "string"
        },
        {
          "name": "phoneNo",
          "type": "uint256"
        }
      ],
      "name": "register",
      "outputs": [],
      "payable": false,
      "stateMutability": "nonpayable",
      "type": "function"
    },
    {
      "constant": false,
      "inputs": [
        {
          "name": "items",
          "type": "uint256[]"
        },
        {
          "name": "quantities",
          "type": "uint256[]"
        },
        {
          "name": "areaId",
          "type": "uint256"
        },
        {
          "name": "fullAddress",
          "type": "string"
        },
        {
          "name": "restId",
          "type": "uint256"
        }
      ],
      "name": "placeOrder",
      "outputs": [],
      "payable": true,
      "stateMutability": "payable",
      "type": "function"
    },
    {
      "constant": true,
      "inputs": [
        {
          "name": "id",
          "type": "uint256"
        }
      ],
      "name": "getOrder",
      "outputs": [
        {
          "components": [
            {
              "name": "orderer",
              "type": "address"
            },
            {
              "name": "deliverer",
              "type": "address"
            },
            {
              "name": "fund",
              "type": "uint256"
            },
            {
              "name": "restaurantId",
              "type": "uint256"
            },
            {
              "name": "items",
              "type": "uint256[]"
            },
            {
              "name": "quantities",
              "type": "uint256[]"
            },
            {
              "name": "areaId",
              "type": "uint256"
            },
            {
              "name": "fullAddress",
              "type": "string"
            },
            {
              "name": "isCanceled",
              "type": "bool"
            },
            {
              "name": "restaurantApproved",
              "type": "bool"
            },
            {
              "name": "pickupConfirmed",
              "type": "bool"
            },
            {
              "name": "orderReceived",
              "type": "bool"
            },
            {
              "name": "reclaimed",
              "type": "bool"
            },
            {
              "name": "orderTime",
              "type": "uint256"
            }
          ],
          "name": "",
          "type": "tuple"
        }
      ],
      "payable": false,
      "stateMutability": "view",
      "type": "function"
    },
    {
      "constant": false,
      "inputs": [
        {
          "name": "orderId",
          "type": "uint256"
        }
      ],
      "name": "cancelOrder",
      "outputs": [],
      "payable": false,
      "stateMutability": "nonpayable",
      "type": "function"
    },
    {
      "constant": false,
      "inputs": [
        {
          "name": "orderId",
          "type": "uint256"
        }
      ],
      "name": "receiveOrder",
      "outputs": [],
      "payable": false,
      "stateMutability": "nonpayable",
      "type": "function"
    },
    {
      "constant": false,
      "inputs": [
        {
          "name": "orderId",
          "type": "uint256"
        }
      ],
      "name": "approveOrder",
      "outputs": [],
      "payable": false,
      "stateMutability": "nonpayable",
      "type": "function"
    },
    {
      "constant": true,
      "inputs": [
        {
          "name": "areaId",
          "type": "uint256"
        }
      ],
      "name": "searchAreaRestaurant",
      "outputs": [
        {
          "name": "",
          "type": "uint256[]"
        },
        {
          "name": "",
          "type": "string[]"
        },
        {
          "name": "",
          "type": "string[]"
        }
      ],
      "payable": false,
      "stateMutability": "view",
      "type": "function"
    },
    {
      "constant": false,
      "inputs": [
        {
          "name": "orderId",
          "type": "uint256"
        }
      ],
      "name": "reclaim",
      "outputs": [],
      "payable": false,
      "stateMutability": "nonpayable",
      "type": "function"
    },
    {
      "constant": true,
      "inputs": [
        {
          "name": "areaId",
          "type": "uint256"
        }
      ],
      "name": "searchAreaOrder",
      "outputs": [
        {
          "name": "",
          "type": "uint256[]"
        },
        {
          "name": "",
          "type": "address[]"
        },
        {
          "name": "",
          "type": "string[]"
        },
        {
          "name": "",
          "type": "uint256[]"
        }
      ],
      "payable": false,
      "stateMutability": "view",
      "type": "function"
    },
    {
      "constant": true,
      "inputs": [
        {
          "name": "orderId",
          "type": "uint256"
        }
      ],
      "name": "getLockedBalanceForDeleivery",
      "outputs": [
        {
          "name": "fund",
          "type": "uint256"
        }
      ],
      "payable": false,
      "stateMutability": "view",
      "type": "function"
    },
    {
      "constant": false,
      "inputs": [
        {
          "name": "orderId",
          "type": "uint256"
        }
      ],
      "name": "acceptOrder",
      "outputs": [],
      "payable": true,
      "stateMutability": "payable",
      "type": "function"
    },
    {
      "constant": false,
      "inputs": [
        {
          "name": "orderId",
          "type": "uint256"
        }
      ],
      "name": "confirmPickup",
      "outputs": [],
      "payable": false,
      "stateMutability": "nonpayable",
      "type": "function"
    },
    {
      "constant": false,
      "inputs": [
        {
          "name": "option",
          "type": "uint256"
        }
      ],
      "name": "genEvent",
      "outputs": [],
      "payable": false,
      "stateMutability": "nonpayable",
      "type": "function"
    }
  ],
  "bytecode": "0x608060405260008054600160a060020a03191633179055600a60025560326003556064600455603c60055534801561003657600080fd5b50613466806100466000396000f3fe60806040526004361061013c576000357c01000000000000000000000000000000000000000000000000000000009004806397bab12f116100bd578063d09ef24111610081578063d09ef2411461036b578063d33bcb5514610398578063dbb4be2c146103b8578063e8a60558146103d8578063ef18e9ed146103f85761013c565b806397bab12f146102ac578063b776fc15146102cc578063bd4b8a04146102ec578063c298f1e71461030c578063c81a387b1461033c5761013c565b8063514fcac711610104578063514fcac71461020b57806359cc334a1461022b5780636490c7a81461025957806372c8ef0f1461028657806389b0e197146102995761013c565b80632171197a146101415780632dabbeed146101635780632ea3981a146101835780633a2959ea146101ae578063420c08d8146101db575b600080fd5b34801561014d57600080fd5b5061016161015c366004612bc0565b61040b565b005b34801561016f57600080fd5b5061016161017e366004612bc0565b6105fa565b34801561018f57600080fd5b50610198610820565b6040516101a591906130fe565b60405180910390f35b3480156101ba57600080fd5b506101ce6101c9366004612bc0565b6108f9565b6040516101a591906132ec565b3480156101e757600080fd5b506101fb6101f6366004612bc0565b61093a565b6040516101a5949392919061310f565b34801561021757600080fd5b50610161610226366004612bc0565b610f03565b34801561023757600080fd5b5061024b610246366004612bff565b611074565b6040516101a592919061324b565b34801561026557600080fd5b50610279610274366004612bc0565b61115b565b6040516101a591906131f9565b610161610294366004612b44565b611204565b6101616102a7366004612a4b565b611375565b3480156102b857600080fd5b506101616102c7366004612bc0565b61184d565b3480156102d857600080fd5b506101616102e7366004612bde565b611949565b3480156102f857600080fd5b50610161610307366004612bc0565b6119ff565b34801561031857600080fd5b5061032c610327366004612bc0565b611ace565b6040516101a5949392919061320a565b34801561034857600080fd5b5061035c610357366004612bc0565b611c32565b6040516101a593929190613166565b34801561037757600080fd5b5061038b610386366004612bc0565b6120e1565b6040516101a591906132db565b3480156103a457600080fd5b506101616103b3366004612bc0565b6122ed565b3480156103c457600080fd5b506101616103d3366004612b07565b612444565b3480156103e457600080fd5b506101616103f3366004612b44565b6124a3565b610161610406366004612bc0565b612517565b8061044d577fe1f646fb9fbd0df83871429c44bd4b7597a75929f1687574c20d54884fb10f4f600060405161044091906131a8565b60405180910390a16105f7565b806001141561049c577faf1c54a4cd9e217317fbed7ea49596cdcacb707ee88460a00fa1c1ca780ea82560007302d91ba6b954cfa50b2dd685212dae7cf26b52b96040516104409291906131b6565b80600214156104eb577f8cd0c40718b4685e7ef989908e0dbb7523bbd6db2d870cbb6c78f838074d29196000737e3d972a5916b6dd9b3d518bf8f36d891cecb9106040516104409291906131b6565b806003141561053a577fee293e8a1e67c7ec955ed966cae51b318c63b933a502845d637175ccf446dc5b6000737e3d972a5916b6dd9b3d518bf8f36d891cecb9106040516104409291906131b6565b806004141561059f577f60fd9dfa624e807faf3af33c3043aae1ed8c6ebe194cf399a4cf6997b6b7e25c600073bfb21c004eedc4229d30485e09fca941eb76223a7302d91ba6b954cfa50b2dd685212dae7cf26b52b9604051610440939291906131d1565b80600514156105f7577f9830ab083f482a01fcb7d96d20bb979a0220c8d3a95891685c72b26221dea8fe6000737e3d972a5916b6dd9b3d518bf8f36d891cecb9106040516105ee9291906131b6565b60405180910390a15b50565b60006009828154811061060957fe5b60009182526020909120600a909102018054909150600160a060020a031633146106515760405160e560020a62461bcd0281526004016106489061326b565b60405180910390fd5b600881015460ff16158015610672575060088101546301000000900460ff16155b801561068b57506008810154640100000000900460ff16155b6106aa5760405160e560020a62461bcd0281526004016106489061327b565b42600554603c02826009015401106106d75760405160e560020a62461bcd0281526004016106489061328b565b600454600282015460035483546040516064840490920290920190920191600160a060020a039091169082156108fc029083906000818181858888f19350505050158015610729573d6000803e3d6000fd5b506008820154610100900460ff16156107ab576000600683600301548154811061074f57fe5b6000918252602090912060079091020180546002850154919250600160a060020a0316906108fc9061078090612762565b6040518115909202916000818181858888f193505050501580156107a8573d6000803e3d6000fd5b50505b6001820154600160a060020a03166107ff5760018201546002830154604051600160a060020a039092169181156108fc0291906000818181858888f193505050501580156107fd573d6000803e3d6000fd5b505b5060006002820155600801805464ff00000000191664010000000017905550565b60606001805480602002602001604051908101604052809291908181526020016000905b828210156108ef5760008481526020908190208301805460408051601f60026000196101006001871615020190941693909304928301859004850281018501909152818152928301828280156108db5780601f106108b0576101008083540402835291602001916108db565b820191906000526020600020905b8154815290600101906020018083116108be57829003601f168201915b505050505081526020019060010190610844565b5050505090505b90565b6000806009838154811061090957fe5b90600052602060002090600a02019050600354606482600201548161092a57fe5b0402816002015401915050919050565b60608080806000805b600954811015610b7b5760006009828154811061095c57fe5b90600052602060002090600a02019050878160060154148015610b665750604080516101c0810182528254600160a060020a03908116825260018401541660208083019190915260028401548284015260038401546060830152600484018054845181840281018401909552808552610b669486936080860193919290830182828015610a0857602002820191906000526020600020905b8154815260200190600101908083116109f4575b5050505050815260200160058201805480602002602001604051908101604052809291908181526020018280548015610a6057602002820191906000526020600020905b815481526020019060010190808311610a4c575b5050509183525050600682015460208083019190915260078301805460408051601f60026000196101006001871615020190941693909304928301859004850281018501825282815294019392830182828015610afe5780601f10610ad357610100808354040283529160200191610afe565b820191906000526020600020905b815481529060010190602001808311610ae157829003601f168201915b5050509183525050600882015460ff8082161515602084015261010082048116151560408401526201000082048116151560608401526301000000820481161515608084015264010000000090910416151560a082015260099091015460c090910152612779565b15610b72576001909201915b50600101610943565b50606081604051908082528060200260200182016040528015610ba8578160200160208202803883390190505b509050606082604051908082528060200260200182016040528015610bd7578160200160208202803883390190505b509050606083604051908082528060200260200182016040528015610c1057816020015b6060815260200190600190039081610bfb5790505b509050606084604051908082528060200260200182016040528015610c3f578160200160208202803883390190505b50600095509050845b600954811015610ef257600060098281548110610c6157fe5b90600052602060002090600a020190508b8160060154148015610dd45750604080516101c0810182528254600160a060020a03908116825260018401541660208083019190915260028401548284015260038401546060830152600484018054845181840281018401909552808552610dd49486936080860193919290830182828015610a0857602002820191906000526020600020908154815260200190600101908083116109f4575050505050815260200160058201805480602002602001604051908101604052809291908181526020018280548015610a605760200282019190600052602060002090815481526020019060010190808311610a4c575050509183525050600682015460208083019190915260078301805460408051601f60026000196101006001871615020190941693909304928301859004850281018501825282815294019392830182828015610afe5780601f10610ad357610100808354040283529160200191610afe565b15610ee95781868881518110610de657fe5b602090810291909101015280548551600160a060020a0390911690869089908110610e0d57fe5b600160a060020a0390921660209283029190910182015260078201805460408051601f6002600019610100600187161502019094169390930492830185900485028101850190915281815292830182828015610eaa5780601f10610e7f57610100808354040283529160200191610eaa565b820191906000526020600020905b815481529060010190602001808311610e8d57829003601f168201915b5050505050848881518110610ebb57fe5b60200260200101819052508060020154838881518110610ed757fe5b60209081029190910101526001909601955b50600101610c48565b509299919850965090945092505050565b600060098281548110610f1257fe5b60009182526020909120600a909102018054909150600160a060020a031633148015610f435750600881015460ff16155b8015610f5b57506001810154600160a060020a031615155b610f6457600080fd5b60088101805460ff19166001179055600454600282015460405133929190910180156108fc02916000818181858888f19350505050158015610faa573d6000803e3d6000fd5b506008810154610100900460ff161561102c5760006006826003015481548110610fd057fe5b6000918252602090912060079091020180546002840154919250600160a060020a0316906108fc9061100190612762565b6040518115909202916000818181858888f19350505050158015611029573d6000803e3d6000fd5b50505b80546040517f8cd0c40718b4685e7ef989908e0dbb7523bbd6db2d870cbb6c78f838074d291991611068918591600160a060020a0316906132fa565b60405180910390a15050565b60606000806006858154811061108657fe5b906000526020600020906007020160060160008581526020019081526020016000209050806000018160010154818054600181600116156101000203166002900480601f0160208091040260200160405190810160405280929190818152602001828054600181600116156101000203166002900480156111485780601f1061111d57610100808354040283529160200191611148565b820191906000526020600020905b81548152906001019060200180831161112b57829003601f168201915b5050505050915092509250509250929050565b60606001828154811061116a57fe5b600091825260209182902001805460408051601f60026000196101006001871615020190941693909304928301859004850281018501909152818152928301828280156111f85780601f106111cd576101008083540402835291602001916111f8565b820191906000526020600020905b8154815290600101906020018083116111db57829003601f168201915b50505050509050919050565b61120c6127cd565b3381523461121957600080fd5b3460208083019182526040830186815260608401869052608084018590526006805460018101808355600092909252855160079091027ff652222313e28459528d920b65115c16c04f3efc82aaedc97be59f3f377c0d3f81018054600160a060020a0390931673ffffffffffffffffffffffffffffffffffffffff1990931692909217825594517ff652222313e28459528d920b65115c16c04f3efc82aaedc97be59f3f377c0d4086015591518051919486946112fc937ff652222313e28459528d920b65115c16c04f3efc82aaedc97be59f3f377c0d4190920192019061280c565b506060820151805161131891600384019160209091019061280c565b506080820151816004015560a082015181600501555050507fe1f646fb9fbd0df83871429c44bd4b7597a75929f1687574c20d54884fb10f4f60016006805490500360405161136791906132ec565b60405180910390a150505050565b61137d61288a565b3381526080810186905260a0810185905260c0810184905260e081018390526006805460009190849081106113ae57fe5b60009182526020918290206040805160c0810182526007939093029091018054600160a060020a03168352600180820154848601526002808301805485516101009482161594909402600019011691909104601f8101879004870283018701855280835292965061152b958794860193908301828280156114705780601f1061144557610100808354040283529160200191611470565b820191906000526020600020905b81548152906001019060200180831161145357829003601f168201915b505050918352505060038201805460408051602060026001851615610100026000190190941693909304601f81018490048402820184019092528181529382019392918301828280156115045780601f106114d957610100808354040283529160200191611504565b820191906000526020600020905b8154815290600101906020018083116114e757829003601f168201915b505050505081526020016004820154815260200160058201548152505083604001516127ad565b61154a5760405160e560020a62461bcd028152600401610648906132cb565b606082018390526000805b88518110156115ca5787818151811061156a57fe5b60200260200101516006868154811061157f57fe5b906000526020600020906007020160060160008b848151811061159e57fe5b602002602001015181526020019081526020016000206001015402820191508080600101915050611555565b50600454810134146115f15760405160e560020a62461bcd028152600401610648906132ab565b60408301818152426101a085015260098054600181018083556000929092528551600a9091027f6e1540171b6c0c960b71a7020d9f60077f6af931a8bbf590da0223dacf75c7af81018054600160a060020a0393841673ffffffffffffffffffffffffffffffffffffffff199182161782556020808a01517f6e1540171b6c0c960b71a7020d9f60077f6af931a8bbf590da0223dacf75c7b0850180549190961692169190911790935593517f6e1540171b6c0c960b71a7020d9f60077f6af931a8bbf590da0223dacf75c7b182015560608701517f6e1540171b6c0c960b71a7020d9f60077f6af931a8bbf590da0223dacf75c7b282015560808701518051939488949093611725937f6e1540171b6c0c960b71a7020d9f60077f6af931a8bbf590da0223dacf75c7b3019201906128fd565b5060a082015180516117419160058401916020909101906128fd565b5060c0820151600682015560e0820151805161176791600784019160209091019061280c565b506101008281015160088301805461012086015161014087015161016088015161018089015160ff199094169515159590951761ff0019169115159095021762ff0000191662010000941515949094029390931763ff00000019166301000000921515929092029190911764ff000000001916640100000000921515929092029190911790556101a0909101516009918201555483546040517faf1c54a4cd9e217317fbed7ea49596cdcacb707ee88460a00fa1c1ca780ea825935061183b926000190191600160a060020a0316906132fa565b60405180910390a15050505050505050565b60006009828154811061185c57fe5b60009182526020909120600a909102018054909150600160a060020a0316331461188557600080fd5b60088101546301000000900460ff161580156118a65750600881015460ff16155b80156118be57506001810154600160a060020a031615155b6118c757600080fd5b60088101805463ff000000191663010000001790556000600282018190556118ee81612762565b60018301546004546003546002860154604051949550600160a060020a03909316936064840490910290920101830180156108fc02916000818181858888f19350505050158015611943573d6000803e3d6000fd5b50505050565b60006006848154811061195857fe5b600091825260209091206007909102018054909150600160a060020a0316331461198157600080fd5b6040805160608101825284815260208082018590526000828401819052600585015481526006850182529290922081518051929391926119c4928492019061280c565b5060208201516001828101919091556040909201516002909101805460ff191691151591909117905560059190910180549091019055505050565b600060098281548110611a0e57fe5b90600052602060002090600a0201905060006006826003015481548110611a3157fe5b600091825260209091206007909102018054909150600160a060020a03163314611a5a57600080fd5b60088201805461ff0019166101001790556002820154611a7990612762565b60018201805491909103905581546040517fee293e8a1e67c7ec955ed966cae51b318c63b933a502845d637175ccf446dc5b91611ac1918691600160a060020a0316906132fa565b60405180910390a1505050565b606080600080600060068681548110611ae357fe5b600091825260209182902060046007909202019081015460058201546002808401805460408051601f600019610100600186161502019093169490940491820188900488028401880190528083529496509460038701948691830182828015611b8d5780601f10611b6257610100808354040283529160200191611b8d565b820191906000526020600020905b815481529060010190602001808311611b7057829003601f168201915b5050865460408051602060026001851615610100026000190190941693909304601f810184900484028201840190925281815295995088945092508401905082828015611c1b5780601f10611bf057610100808354040283529160200191611c1b565b820191906000526020600020905b815481529060010190602001808311611bfe57829003601f168201915b505050505092509450945094509450509193509193565b606080806000805b600654811015611df157600060068281548110611c5357fe5b90600052602060002090600702019050868160040154148015611ddc57506040805160c0810182528254600160a060020a03168152600180840154602080840191909152600280860180548651601f600019968316156101000296909601909116929092049384018390048302820183018652838252611ddc95879490860193830182828015611d245780601f10611cf957610100808354040283529160200191611d24565b820191906000526020600020905b815481529060010190602001808311611d0757829003601f168201915b505050918352505060038201805460408051602060026001851615610100026000190190941693909304601f8101849004840282018401909252818152938201939291830182828015611db85780601f10611d8d57610100808354040283529160200191611db8565b820191906000526020600020905b815481529060010190602001808311611d9b57829003601f168201915b505050505081526020016004820154815260200160058201548152505060646127ad565b15611de8576001909201915b50600101611c3a565b50606081604051908082528060200260200182016040528015611e1e578160200160208202803883390190505b509050606082604051908082528060200260200182016040528015611e5757816020015b6060815260200190600190039081611e425790505b509050606083604051908082528060200260200182016040528015611e9057816020015b6060815260200190600190039081611e7b5790505b50600094509050835b6006548110156120d257600060068281548110611eb257fe5b90600052602060002090600702019050898160040154148015611f5857506040805160c0810182528254600160a060020a03168152600180840154602080840191909152600280860180548651601f600019968316156101000296909601909116929092049384018390048302820183018652838252611f5895879490860193830182828015611d245780601f10611cf957610100808354040283529160200191611d24565b156120c95781858781518110611f6a57fe5b60209081029190910181019190915260028281018054604080516001831615610100026000190190921693909304601f8101859004850282018501909352828152929091908301828280156120005780601f10611fd557610100808354040283529160200191612000565b820191906000526020600020905b815481529060010190602001808311611fe357829003601f168201915b505050505084878151811061201157fe5b60209081029190910181019190915260038201805460408051601f60026000196101006001871615020190941693909304928301859004850281018501909152818152928301828280156120a65780601f1061207b576101008083540402835291602001916120a6565b820191906000526020600020905b81548152906001019060200180831161208957829003601f168201915b50505050508387815181106120b757fe5b60209081029190910101526001909501945b50600101611e99565b50919790965090945092505050565b6120e961288a565b600982815481106120f657fe5b6000918252602091829020604080516101c081018252600a9093029091018054600160a060020a03908116845260018201541683850152600281015483830152600381015460608401526004810180548351818702810187019094528084529394919360808601939283018282801561218e57602002820191906000526020600020905b81548152602001906001019080831161217a575b50505050508152602001600582018054806020026020016040519081016040528092919081815260200182805480156121e657602002820191906000526020600020905b8154815260200190600101908083116121d2575b5050509183525050600682015460208083019190915260078301805460408051601f600260001961010060018716150201909416939093049283018590048502810185018252828152940193928301828280156122845780601f1061225957610100808354040283529160200191612284565b820191906000526020600020905b81548152906001019060200180831161226757829003601f168201915b5050509183525050600882015460ff8082161515602084015261010082048116151560408401526201000082048116151560608401526301000000820481161515608084015264010000000090910416151560a082015260099091015460c09091015292915050565b6000600982815481106122fc57fe5b60009182526020909120600a909102016001810154909150600160a060020a0316331461233e5760405160e560020a62461bcd0281526004016106489061326b565b600881015460ff1615801561235c57506008810154610100900460ff165b80156123735750600881015462010000900460ff16155b6123925760405160e560020a62461bcd028152600401610648906132bb565b60088101805462ff00001916620100001790556003810154600680546000929081106123ba57fe5b60009182526020822060079091020180546002850154604051929450600160a060020a039091169281156108fc029290818181858888f19350505050158015612407573d6000803e3d6000fd5b5081546040517f9830ab083f482a01fcb7d96d20bb979a0220c8d3a95891685c72b26221dea8fe91611ac1918691600160a060020a0316906132fa565b600054600160a060020a0316331461245b57600080fd5b60018054808201808355600092909252825161249e917fb10e2d527612073b26eecdfd717e6a320cf44b4afac2b0732d9fcbe2b7fa0cf60190602085019061280c565b505050565b6124ab612937565b50604080516060810182528481526020808201859052818301849052336000908152600882529290922081518051929384936124ea928492019061280c565b506020828101518051612503926001850192019061280c565b506040820151816002015590505050505050565b60006009828154811061252657fe5b6000918252602091829020604080516101c081018252600a9093029091018054600160a060020a039081168452600182015416838501526002810154838301526003810154606084015260048101805483518187028101870190945280845291955061268c9486936080860193909291830182828015610a0857602002820191906000526020600020908154815260200190600101908083116109f4575050505050815260200160058201805480602002602001604051908101604052809291908181526020018280548015610a605760200282019190600052602060002090815481526020019060010190808311610a4c575050509183525050600682015460208083019190915260078301805460408051601f60026000196101006001871615020190941693909304928301859004850281018501825282815294019392830182828015610afe5780601f10610ad357610100808354040283529160200191610afe565b61269557600080fd5b600060035460648360020154816126a857fe5b040282600201540190508034146126d45760405160e560020a62461bcd0281526004016106489061329b565b60018201805473ffffffffffffffffffffffffffffffffffffffff19163317905560038201546006805460009290811061270a57fe5b60009182526020909120600185015460079092020180546040519193507f60fd9dfa624e807faf3af33c3043aae1ed8c6ebe194cf399a4cf6997b6b7e25c92611367928892600160a060020a03928316921690613308565b60006002546064838161277157fe5b040292915050565b6000816101200151801561279857506020820151600160a060020a0316155b80156127a75750816101000151155b92915050565b6000600254606483816127bc57fe5b040283602001511015905092915050565b6040518060c001604052806000600160a060020a0316815260200160008152602001606081526020016060815260200160008152602001600081525090565b828054600181600116156101000203166002900490600052602060002090601f016020900481019282601f1061284d57805160ff191683800117855561287a565b8280016001018555821561287a579182015b8281111561287a57825182559160200191906001019061285f565b50612886929150612958565b5090565b604080516101c08101825260008082526020820181905291810182905260608082018390526080820181905260a0820181905260c0820183905260e0820152610100810182905261012081018290526101408101829052610160810182905261018081018290526101a081019190915290565b82805482825590600052602060002090810192821561287a579160200282018281111561287a57825182559160200191906001019061285f565b60405180606001604052806060815260200160608152602001600081525090565b6108f691905b80821115612886576000815560010161295e565b600082601f83011261298357600080fd5b81356129966129918261333d565b613316565b915081818352602084019350602081019050838560208402820111156129bb57600080fd5b60005b838110156129e757816129d18882612a40565b84525060209283019291909101906001016129be565b5050505092915050565b600082601f830112612a0257600080fd5b8135612a106129918261335e565b91508082526020830160208301858383011115612a2c57600080fd5b612a378382846133d6565b50505092915050565b80356127a781613418565b600080600080600060a08688031215612a6357600080fd5b853567ffffffffffffffff811115612a7a57600080fd5b612a8688828901612972565b955050602086013567ffffffffffffffff811115612aa357600080fd5b612aaf88828901612972565b9450506040612ac088828901612a40565b935050606086013567ffffffffffffffff811115612add57600080fd5b612ae9888289016129f1565b9250506080612afa88828901612a40565b9150509295509295909350565b600060208284031215612b1957600080fd5b813567ffffffffffffffff811115612b3057600080fd5b612b3c848285016129f1565b949350505050565b600080600060608486031215612b5957600080fd5b833567ffffffffffffffff811115612b7057600080fd5b612b7c868287016129f1565b935050602084013567ffffffffffffffff811115612b9957600080fd5b612ba5868287016129f1565b9250506040612bb686828701612a40565b9150509250925092565b600060208284031215612bd257600080fd5b6000612b3c8484612a40565b600080600060608486031215612bf357600080fd5b6000612b7c8686612a40565b60008060408385031215612c1257600080fd5b6000612c1e8585612a40565b9250506020612c2f85828601612a40565b9150509250929050565b6000612c458383612c7b565b505060200190565b6000612c598383612df9565b9392505050565b6000612c4583836130f5565b612c75816133b5565b82525050565b612c7581613399565b6000612c8f8261338c565b612c998185613390565b9350612ca483613386565b8060005b83811015612cd2578151612cbc8882612c39565b9750612cc783613386565b925050600101612ca8565b509495945050505050565b6000612ce88261338c565b612cf28185613390565b935083602082028501612d0485613386565b8060005b85811015612d3e5784840389528151612d218582612c4d565b9450612d2c83613386565b60209a909a0199925050600101612d08565b5091979650505050505050565b6000612d568261338c565b612d608185613390565b9350612d6b83613386565b8060005b83811015612cd2578151612d838882612c60565b9750612d8e83613386565b925050600101612d6f565b6000612da48261338c565b612dae8185613390565b9350612db983613386565b8060005b83811015612cd2578151612dd18882612c60565b9750612ddc83613386565b925050600101612dbd565b612c75816133a4565b612c75816133c0565b6000612e048261338c565b612e0e8185613390565b9350612e1e8185602086016133e2565b612e278161340e565b9093019392505050565b6000612e3e601083613390565b7f4163636573732072656a65637465642e00000000000000000000000000000000815260200192915050565b6000612e77601883613390565b7f496e76616c6964207265636c61696d20726571756573742e0000000000000000815260200192915050565b6000612eb0601d83613390565b7f547279206166746572206d6178206f72646572206475726174696f6e2e000000815260200192915050565b6000612ee9601683613390565b7f4e6f7420656e6f7567682066756e6420676976656e2e00000000000000000000815260200192915050565b6000612f22601583613390565b7f4e6f7420656e6f7567682066756e642073656e742e0000000000000000000000815260200192915050565b6000612f5b601083613390565b7f496e76616c696420726571756573742e00000000000000000000000000000000815260200192915050565b6000612f94601f83613390565b7f52657374617572616e7420697320756e61626c6520746f2064656c6976657200815260200192915050565b80516000906101c0840190612fd58582612c7b565b506020830151612fe86020860182612c7b565b506040830151612ffb60408601826130f5565b50606083015161300e60608601826130f5565b50608083015184820360808601526130268282612d99565b91505060a083015184820360a08601526130408282612d99565b91505060c083015161305560c08601826130f5565b5060e083015184820360e086015261306d8282612df9565b915050610100830151613084610100860182612de7565b50610120830151613099610120860182612de7565b506101408301516130ae610140860182612de7565b506101608301516130c3610160860182612de7565b506101808301516130d8610180860182612de7565b506101a08301516130ed6101a08601826130f5565b509392505050565b612c75816108f6565b60208082528101612c598184612cdd565b608080825281016131208187612d4b565b905081810360208301526131348186612c84565b905081810360408301526131488185612cdd565b9050818103606083015261315c8184612d4b565b9695505050505050565b606080825281016131778186612d4b565b9050818103602083015261318b8185612cdd565b9050818103604083015261319f8184612cdd565b95945050505050565b602081016127a78284612df0565b604081016131c48285612df0565b612c596020830184612c6c565b606081016131df8286612df0565b6131ec6020830185612c6c565b612b3c6040830184612c6c565b60208082528101612c598184612df9565b6080808252810161321b8187612df9565b9050818103602083015261322f8186612df9565b905061323e60408301856130f5565b61319f60608301846130f5565b6040808252810161325c8185612df9565b9050612c5960208301846130f5565b602080825281016127a781612e31565b602080825281016127a781612e6a565b602080825281016127a781612ea3565b602080825281016127a781612edc565b602080825281016127a781612f15565b602080825281016127a781612f4e565b602080825281016127a781612f87565b60208082528101612c598184612fc0565b602081016127a782846130f5565b604081016131c482856130f5565b606081016131df82866130f5565b60405181810167ffffffffffffffff8111828210171561333557600080fd5b604052919050565b600067ffffffffffffffff82111561335457600080fd5b5060209081020190565b600067ffffffffffffffff82111561337557600080fd5b506020601f91909101601f19160190565b60200190565b5190565b90815260200190565b60006127a7826133a9565b151590565b600160a060020a031690565b60006127a7826133cb565b60006127a7826108f6565b60006127a782613399565b82818337506000910152565b60005b838110156133fd5781810151838201526020016133e5565b838111156119435750506000910152565b601f01601f191690565b613421816108f6565b81146105f757600080fdfea265627a7a72305820d31afc0876c3169a2145132a382fab561203a8561098a462c30f3e5d14b4cab56c6578706572696d656e74616cf50037",
  "source": "pragma solidity ^0.5.7;\npragma experimental ABIEncoderV2;\n// import \"github.com/ethereum/dapp-bin/library/stringUtils.sol\";\n\ncontract Food{\n  struct Item {\n    string name;\n    uint256 price;\n    bool disabled;\n  }\n\n  struct Restaurant {\n    address payable owner;\n    uint256 fund;\n    string name;\n    string addr;\n    uint256 areaId;\n    uint256 itemId;\n    mapping(uint256=> Item) items;\n    // Item[] items;\n  }\n\n  struct User {\n    string name;\n    string addr;\n    uint256 phoneNo;\n  }\n\n  struct Order {\n    address payable orderer;\n    address payable deliverer;\n    uint256 fund;\n    uint256 restaurantId;\n    uint256[] items;\n    uint256[] quantities;\n    uint256 areaId;\n    string fullAddress;\n    bool isCanceled;\n    bool restaurantApproved;\n    bool pickupConfirmed;\n    bool orderReceived;\n    bool reclaimed;\n    uint256 orderTime;\n  }\n\n  // Admin methods\n  address admin = msg.sender;\n  string[] areas;\n  uint commissionRate = 10;\n  uint lockedRate = 50;\n  uint256 deliveryFee = 100;\n  uint maxDeliveryTime = 60;\n\n  modifier isAdmin() {\n    require(msg.sender == admin);\n    _;\n  }\n\n  function addArea(string memory area) public isAdmin {\n    // require(!checkAreaExists(area), \"Area already exists.\");\n    areas.push(area);\n  }\n\n  function getArea(uint256 id) public view returns(string memory area){\n    return areas[id];\n  }\n\n  function getAreas() public view returns(string[] memory){\n    return areas;\n  }\n\n  // function checkAreaExists(string memory area) private view returns(bool found){\n  //     for (uint i=0; i<areas.length; i++) {\n  //         if(StringUtils.equal(areas[i], area)) return true;\n  //     }\n  //     return false;\n  // }\n\n\n  // Restaurant methods\n  // mapping(uint256 => Restaurant) restaurants;\n  Restaurant[] restaurants;\n  uint256 restaurantId;\n\n  function addRestaurant(string memory name, string memory addr, uint256 areaId)\n  public payable {\n    Restaurant memory restaurant;\n    restaurant.owner = msg.sender;\n    require(msg.value > 0);\n    restaurant.fund = msg.value;\n    restaurant.name = name;\n    restaurant.addr = addr;\n    restaurant.areaId = areaId;\n    restaurants.push(restaurant);\n    // event\n    emit newRestaurant(restaurants.length -1);\n  }\n\n  function getRestaurant(uint256 id) public view\n  returns(string memory name, string memory addr, uint256 areaId, uint256 itemCount) {\n    Restaurant storage restaurant = restaurants[id];\n    return (restaurant.name, restaurant.addr, restaurant.areaId, restaurant.itemId);\n  }\n\n  function addItem(uint256 id, string memory name, uint256 price) public {\n    Restaurant storage restaurant = restaurants[id];\n    require(restaurant.owner == msg.sender);\n    restaurant.items[restaurant.itemId] = Item(name, price, false);\n    restaurant.itemId++;\n  }\n\n  function getItem(uint256 restId, uint256 itemId) public view\n  returns (string memory name, uint256 price){\n    Item storage item = restaurants[restId].items[itemId];\n    return (item.name, item.price);\n  }\n\n\n  // User mathods\n  mapping(address => User) users;\n\n  function register(string memory name, string memory addr, uint256 phoneNo) public {\n    User memory user = User(name, addr, phoneNo);\n    users[msg.sender] = user;\n  }\n\n  // Orderer methods\n  Order[] orders;\n\n  function placeOrder(uint256[] memory items, uint256[] memory quantities, uint256 areaId,\n    string memory fullAddress, uint256 restId) public payable {\n    // add requires\n    Order memory order;\n    order.orderer = msg.sender;\n    order.items = items;\n    order.quantities = quantities;\n    order.areaId = areaId;\n    order.fullAddress = fullAddress;\n\n    Restaurant storage restaurant = restaurants[restId];\n    require(restaurantIsAvailable(restaurant, order.fund), \"Restaurant is unable to deliver\");\n    order.restaurantId = restId;\n    // calculate prices\n    uint256 price = 0;\n    for(uint i=0; i <items.length; i++){\n      price += restaurants[restId].items[items[i]].price * quantities[i];\n    }\n    require(msg.value == price + deliveryFee , \"Not enough fund sent.\");\n\n    order.fund = price;\n    order.orderTime = now;\n    orders.push(order);\n    //event\n    emit newOrder(orders.length -1, restaurant.owner);\n  }\n\n  function getOrder(uint256 id) public view returns(Order memory){\n    return orders[id];\n  }\n\n  function cancelOrder(uint256 orderId) public {\n    Order storage order = orders[orderId];\n    require(order.orderer == msg.sender && !order.isCanceled\n    && order.deliverer != address(0));\n    order.isCanceled = true;\n    // transfer fund\n    msg.sender.transfer(order.fund + deliveryFee);\n    if(order.restaurantApproved){\n      // unlock deliverer commission\n      Restaurant storage restaurant = restaurants[order.restaurantId];\n      restaurant.owner.transfer(calculateCommission(order.fund));\n    }\n    // event\n    emit orderCanceled(orderId, order.orderer);\n  }\n\n  function receiveOrder(uint256 orderId) public {\n    Order storage order = orders[orderId];\n    require(order.orderer == msg.sender);\n    require(!order.orderReceived && !order.isCanceled && order.deliverer != address(0));\n    order.orderReceived = true;\n    order.fund = 0;\n    // transfer\n    uint256 commission = calculateCommission(order.fund);\n    order.deliverer.transfer(order.fund + (order.fund/100) * lockedRate + deliveryFee + commission);\n  }\n\n  function approveOrder(uint256 orderId) public {\n    Order storage order = orders[orderId];\n    Restaurant storage restaurant = restaurants[order.restaurantId];\n\n    require(restaurant.owner == msg.sender);\n    order.restaurantApproved = true;\n    // lock deliverer commission\n    restaurant.fund -= calculateCommission(order.fund);\n    // event\n    emit orderApproved(orderId, order.orderer);\n  }\n\n  function calculateCommission(uint256 fund) private view returns(uint256){\n    return (fund/100)* commissionRate;\n  }\n\n  function searchAreaRestaurant(uint256 areaId) public view\n  returns(uint256[] memory, string[] memory, string[] memory) {\n    uint256 totalMatch = 0;\n    for(uint256 i=0; i<restaurants.length; i++){\n      Restaurant storage restaurant = restaurants[i];\n      if(restaurant.areaId == areaId  && restaurantIsAvailable(restaurant, 100)){\n        totalMatch++;\n      }\n    }\n    uint256[] memory restIds = new uint256[](totalMatch);\n    string[] memory names = new string[](totalMatch);\n    string[] memory fullAddrs = new string[](totalMatch);\n\n    totalMatch = 0;\n    for(uint256 i=0; i<restaurants.length; i++){\n      Restaurant storage restaurant = restaurants[i];\n      if(restaurant.areaId == areaId  && restaurantIsAvailable(restaurant, 100)){\n        restIds[totalMatch] = i;\n        names[totalMatch] = restaurant.name;\n        fullAddrs[totalMatch] = restaurant.addr;\n        totalMatch++;\n      }\n    }\n\n    return(restIds, names, fullAddrs);\n  }\n\n  function restaurantIsAvailable(Restaurant memory restaurant, uint256 price) private view returns(bool){\n    return restaurant.fund >= (price/100)* commissionRate;\n  }\n\n  function reclaim(uint256 orderId) public {\n    Order storage order = orders[orderId];\n    require(msg.sender == order.orderer, \"Access rejected.\");\n    require(!order.isCanceled && !order.orderReceived &&\n    !order.reclaimed, \"Invalid reclaim request.\");\n    require(order.orderTime + maxDeliveryTime * 1 minutes < now, \"Try after max order duration.\");\n\n    uint256 ordererAmount = (order.fund/100) * lockedRate + order.fund + deliveryFee; // deliverer locked + oderer locked.\n    order.orderer.transfer(ordererAmount);\n\n    if(order.restaurantApproved){\n      // unlock deliverer commission\n      Restaurant storage restaurant = restaurants[order.restaurantId];\n      restaurant.owner.transfer(calculateCommission(order.fund));\n    }\n    if(order.deliverer == address(0)){\n      order.deliverer.transfer(order.fund);\n    }\n    order.fund = 0;\n    order.reclaimed = true;\n  }\n\n\n  // Deliverer methods\n  function orderIsAvailable(Order memory order) private pure returns(bool){\n    return order.restaurantApproved\n    && order.deliverer == address(0) && !order.isCanceled;\n  }\n\n  function searchAreaOrder(uint256 areaId) public view\n  returns(uint256[] memory, address[] memory, string[] memory, uint256[] memory){\n    uint256 totalMatch = 0;\n    for(uint256 i=0; i<orders.length; i++){\n      Order storage order = orders[i];\n      if(order.areaId == areaId && orderIsAvailable(order)){\n        totalMatch++;\n      }\n    }\n\n    uint256[] memory orderIds = new uint256[](totalMatch);\n    address[] memory orderers = new address[](totalMatch);\n    string[] memory fullAddrs = new string[](totalMatch);\n    uint256[] memory prices = new uint256[](totalMatch);\n\n    totalMatch = 0;\n    for(uint256 i=0; i<orders.length; i++){\n      Order storage order = orders[i];\n      if(order.areaId == areaId && orderIsAvailable(order)){\n        orderIds[totalMatch] =i;\n        orderers[totalMatch] = order.orderer;\n        fullAddrs[totalMatch] = order.fullAddress;\n        prices[totalMatch] = order.fund;\n        totalMatch++;\n      }\n    }\n\n    return (orderIds, orderers, fullAddrs, prices);\n  }\n\n  function getLockedBalanceForDeleivery(uint256 orderId) public view returns(uint256 fund) {\n    Order storage order = orders[orderId];\n    return order.fund + (order.fund/100)* lockedRate;\n  }\n\n  function acceptOrder(uint256 orderId) public payable {\n    Order storage order = orders[orderId];\n    require(orderIsAvailable(order));\n\n    uint256 expected = order.fund + (order.fund/100)* lockedRate;\n    require(msg.value ==  expected, \"Not enough fund given.\");\n\n    order.deliverer =  msg.sender;\n    // event\n    Restaurant storage restaurant = restaurants[order.restaurantId];\n    emit orderAccepted(orderId, order.deliverer, restaurant.owner);\n  }\n\n  function confirmPickup(uint256 orderId) public {\n    Order storage order = orders[orderId];\n    require(msg.sender == order.deliverer, \"Access rejected.\");\n    require(!order.isCanceled && order.restaurantApproved && !order.pickupConfirmed, \"Invalid request.\");\n\n    order.pickupConfirmed = true;\n    Restaurant storage restaurant = restaurants[order.restaurantId];\n    restaurant.owner.transfer(order.fund);\n    // event\n    emit orderPickedup(orderId, order.orderer);\n  }\n\n  event newRestaurant(uint256 restaurantId);\n  event newOrder(uint256 orderId, address restaurant);\n  event orderCanceled(uint256 orderId, address orderer);\n  event orderApproved(uint256 orderId, address orderer);\n  event orderAccepted(uint256 orderId, address deliverer, address restaurant);\n  event orderPickedup(uint256 orderId, address orderer);\n  // event orderDelivered(uint256 orderId, address orderer);\n\n  function genEvent(uint option) public {\n    if(option == 0){\n      emit newRestaurant(0);\n    } else if(option == 1){\n      emit newOrder(0, 0x02d91Ba6b954cfA50b2Dd685212dAE7Cf26B52B9);\n    } else if (option == 2){\n      emit orderCanceled(0, 0x7E3d972A5916B6dD9b3d518BF8f36D891CECB910);\n    } else if (option == 3){\n      emit orderApproved(0, 0x7E3d972A5916B6dD9b3d518BF8f36D891CECB910);\n    } else if(option == 4){\n      emit orderAccepted(0, 0xbfb21c004EEDc4229d30485E09fcA941eB76223A, 0x02d91Ba6b954cfA50b2Dd685212dAE7Cf26B52B9);\n    } else if(option == 5){\n      emit orderPickedup(0, 0x7E3d972A5916B6dD9b3d518BF8f36D891CECB910);\n    }\n    // else if(option == 5){\n    //     emit orderDelivered(0, 0x7E3d972A5916B6dD9b3d518BF8f36D891CECB910);\n    // }\n  }\n\n}",
  "sourcePath": "/home/sadiq/chainsafe/EthIndia2.0/dFood/contracts/Food.sol",
  "compiler": {
    "name": "solc",
    "version": "0.5.8+commit.23d335f2.Emscripten.clang"
  },
  "schemaVersion": "3.0.11",
  "updatedAt": "2019-08-03T17:52:49.200Z",
  "devdoc": {
    "methods": {}
  },
  "userdoc": {
    "methods": {}
  }
}