{
  "contractName": "Food",
  "abi": [
    {
      "anonymous": false,
      "inputs": [
        {
          "indexed": false,
          "name": "restaurantId",
          "type": "uint256"
        }
      ],
      "name": "newRestaurant",
      "type": "event"
    },
    {
      "anonymous": false,
      "inputs": [
        {
          "indexed": false,
          "name": "orderId",
          "type": "uint256"
        },
        {
          "indexed": false,
          "name": "restaurant",
          "type": "address"
        }
      ],
      "name": "newOrder",
      "type": "event"
    },
    {
      "anonymous": false,
      "inputs": [
        {
          "indexed": false,
          "name": "orderId",
          "type": "uint256"
        },
        {
          "indexed": false,
          "name": "orderer",
          "type": "address"
        }
      ],
      "name": "orderCanceled",
      "type": "event"
    },
    {
      "anonymous": false,
      "inputs": [
        {
          "indexed": false,
          "name": "orderId",
          "type": "uint256"
        },
        {
          "indexed": false,
          "name": "orderer",
          "type": "address"
        }
      ],
      "name": "orderApproved",
      "type": "event"
    },
    {
      "anonymous": false,
      "inputs": [
        {
          "indexed": false,
          "name": "orderId",
          "type": "uint256"
        },
        {
          "indexed": false,
          "name": "deliverer",
          "type": "address"
        },
        {
          "indexed": false,
          "name": "restaurant",
          "type": "address"
        }
      ],
      "name": "orderAccepted",
      "type": "event"
    },
    {
      "anonymous": false,
      "inputs": [
        {
          "indexed": false,
          "name": "orderId",
          "type": "uint256"
        },
        {
          "indexed": false,
          "name": "orderer",
          "type": "address"
        }
      ],
      "name": "orderPickedup",
      "type": "event"
    },
    {
      "constant": false,
      "inputs": [
        {
          "name": "area",
          "type": "string"
        }
      ],
      "name": "addArea",
      "outputs": [],
      "payable": false,
      "stateMutability": "nonpayable",
      "type": "function"
    },
    {
      "constant": true,
      "inputs": [
        {
          "name": "id",
          "type": "uint256"
        }
      ],
      "name": "getArea",
      "outputs": [
        {
          "name": "area",
          "type": "string"
        }
      ],
      "payable": false,
      "stateMutability": "view",
      "type": "function"
    },
    {
      "constant": true,
      "inputs": [],
      "name": "getAreas",
      "outputs": [
        {
          "name": "",
          "type": "string[]"
        }
      ],
      "payable": false,
      "stateMutability": "view",
      "type": "function"
    },
    {
      "constant": false,
      "inputs": [
        {
          "name": "name",
          "type": "string"
        },
        {
          "name": "addr",
          "type": "string"
        },
        {
          "name": "areaId",
          "type": "uint256"
        }
      ],
      "name": "addRestaurant",
      "outputs": [],
      "payable": true,
      "stateMutability": "payable",
      "type": "function"
    },
    {
      "constant": true,
      "inputs": [
        {
          "name": "id",
          "type": "uint256"
        }
      ],
      "name": "getRestaurant",
      "outputs": [
        {
          "name": "name",
          "type": "string"
        },
        {
          "name": "addr",
          "type": "string"
        },
        {
          "name": "areaId",
          "type": "uint256"
        },
        {
          "name": "itemCount",
          "type": "uint256"
        }
      ],
      "payable": false,
      "stateMutability": "view",
      "type": "function"
    },
    {
      "constant": false,
      "inputs": [
        {
          "name": "id",
          "type": "uint256"
        },
        {
          "name": "name",
          "type": "string"
        },
        {
          "name": "price",
          "type": "uint256"
        }
      ],
      "name": "addItem",
      "outputs": [],
      "payable": false,
      "stateMutability": "nonpayable",
      "type": "function"
    },
    {
      "constant": true,
      "inputs": [
        {
          "name": "restId",
          "type": "uint256"
        },
        {
          "name": "itemId",
          "type": "uint256"
        }
      ],
      "name": "getItem",
      "outputs": [
        {
          "name": "name",
          "type": "string"
        },
        {
          "name": "price",
          "type": "uint256"
        }
      ],
      "payable": false,
      "stateMutability": "view",
      "type": "function"
    },
    {
      "constant": false,
      "inputs": [
        {
          "name": "name",
          "type": "string"
        },
        {
          "name": "addr",
          "type": "string"
        },
        {
          "name": "phoneNo",
          "type": "uint256"
        }
      ],
      "name": "register",
      "outputs": [],
      "payable": false,
      "stateMutability": "nonpayable",
      "type": "function"
    },
    {
      "constant": false,
      "inputs": [
        {
          "name": "items",
          "type": "uint256[]"
        },
        {
          "name": "quantities",
          "type": "uint256[]"
        },
        {
          "name": "areaId",
          "type": "uint256"
        },
        {
          "name": "fullAddress",
          "type": "string"
        },
        {
          "name": "restId",
          "type": "uint256"
        }
      ],
      "name": "placeOrder",
      "outputs": [],
      "payable": true,
      "stateMutability": "payable",
      "type": "function"
    },
    {
      "constant": true,
      "inputs": [],
      "name": "getRestaurantOrders",
      "outputs": [
        {
          "name": "",
          "type": "uint256[]"
        }
      ],
      "payable": false,
      "stateMutability": "view",
      "type": "function"
    },
    {
      "constant": true,
      "inputs": [],
      "name": "getDelivererOrders",
      "outputs": [
        {
          "name": "",
          "type": "uint256[]"
        }
      ],
      "payable": false,
      "stateMutability": "view",
      "type": "function"
    },
    {
      "constant": true,
      "inputs": [
        {
          "name": "orderId",
          "type": "uint256"
        }
      ],
      "name": "getDelivererOrder",
      "outputs": [
        {
          "name": "",
          "type": "uint256[]"
        },
        {
          "name": "",
          "type": "uint256[]"
        },
        {
          "name": "",
          "type": "uint256"
        },
        {
          "name": "",
          "type": "string"
        },
        {
          "name": "",
          "type": "uint256"
        },
        {
          "name": "",
          "type": "string"
        },
        {
          "name": "",
          "type": "uint256"
        },
        {
          "name": "",
          "type": "bool"
        },
        {
          "name": "",
          "type": "bool"
        }
      ],
      "payable": false,
      "stateMutability": "view",
      "type": "function"
    },
    {
      "constant": true,
      "inputs": [],
      "name": "getOrdererOrders",
      "outputs": [
        {
          "name": "",
          "type": "uint256[]"
        }
      ],
      "payable": false,
      "stateMutability": "view",
      "type": "function"
    },
    {
      "constant": true,
      "inputs": [
        {
          "name": "orderId",
          "type": "uint256"
        }
      ],
      "name": "getOrder",
      "outputs": [
        {
          "components": [
            {
              "name": "orderer",
              "type": "address"
            },
            {
              "name": "deliverer",
              "type": "address"
            },
            {
              "name": "fund",
              "type": "uint256"
            },
            {
              "name": "restaurantId",
              "type": "uint256"
            },
            {
              "name": "items",
              "type": "uint256[]"
            },
            {
              "name": "quantities",
              "type": "uint256[]"
            },
            {
              "name": "areaId",
              "type": "uint256"
            },
            {
              "name": "fullAddress",
              "type": "string"
            },
            {
              "name": "isCanceled",
              "type": "bool"
            },
            {
              "name": "restaurantApproved",
              "type": "bool"
            },
            {
              "name": "pickupConfirmed",
              "type": "bool"
            },
            {
              "name": "orderReceived",
              "type": "bool"
            },
            {
              "name": "reclaimed",
              "type": "bool"
            },
            {
              "name": "orderTime",
              "type": "uint256"
            }
          ],
          "name": "",
          "type": "tuple"
        }
      ],
      "payable": false,
      "stateMutability": "view",
      "type": "function"
    },
    {
      "constant": false,
      "inputs": [
        {
          "name": "orderId",
          "type": "uint256"
        }
      ],
      "name": "cancelOrder",
      "outputs": [],
      "payable": false,
      "stateMutability": "nonpayable",
      "type": "function"
    },
    {
      "constant": false,
      "inputs": [
        {
          "name": "orderId",
          "type": "uint256"
        }
      ],
      "name": "receiveOrder",
      "outputs": [],
      "payable": false,
      "stateMutability": "nonpayable",
      "type": "function"
    },
    {
      "constant": false,
      "inputs": [
        {
          "name": "orderId",
          "type": "uint256"
        }
      ],
      "name": "approveOrder",
      "outputs": [],
      "payable": false,
      "stateMutability": "nonpayable",
      "type": "function"
    },
    {
      "constant": true,
      "inputs": [
        {
          "name": "areaId",
          "type": "uint256"
        }
      ],
      "name": "searchAreaRestaurant",
      "outputs": [
        {
          "name": "",
          "type": "uint256[]"
        },
        {
          "name": "",
          "type": "string[]"
        },
        {
          "name": "",
          "type": "string[]"
        }
      ],
      "payable": false,
      "stateMutability": "view",
      "type": "function"
    },
    {
      "constant": false,
      "inputs": [
        {
          "name": "orderId",
          "type": "uint256"
        }
      ],
      "name": "reclaim",
      "outputs": [],
      "payable": false,
      "stateMutability": "nonpayable",
      "type": "function"
    },
    {
      "constant": true,
      "inputs": [
        {
          "name": "areaId",
          "type": "uint256"
        }
      ],
      "name": "searchAreaOrder",
      "outputs": [
        {
          "name": "",
          "type": "uint256[]"
        },
        {
          "name": "",
          "type": "address[]"
        },
        {
          "name": "",
          "type": "string[]"
        },
        {
          "name": "",
          "type": "uint256[]"
        }
      ],
      "payable": false,
      "stateMutability": "view",
      "type": "function"
    },
    {
      "constant": false,
      "inputs": [
        {
          "name": "orderId",
          "type": "uint256"
        }
      ],
      "name": "acceptOrder",
      "outputs": [],
      "payable": true,
      "stateMutability": "payable",
      "type": "function"
    },
    {
      "constant": false,
      "inputs": [
        {
          "name": "orderId",
          "type": "uint256"
        }
      ],
      "name": "confirmPickup",
      "outputs": [],
      "payable": false,
      "stateMutability": "nonpayable",
      "type": "function"
    },
    {
      "constant": false,
      "inputs": [
        {
          "name": "option",
          "type": "uint256"
        }
      ],
      "name": "genEvent",
      "outputs": [],
      "payable": false,
      "stateMutability": "nonpayable",
      "type": "function"
    }
  ],
  "bytecode": "0x608060405260008054600160a060020a03191633179055600a60025560326003556064600455603c60055534801561003657600080fd5b50613bd3806100466000396000f3fe60806040526004361061015d576000357c01000000000000000000000000000000000000000000000000000000009004806389b0e197116100d3578063d09ef2411161008c578063d09ef241146103cb578063d33bcb55146103f8578063dbb4be2c14610418578063dd61a31414610438578063e8a605581461044d578063ef18e9ed1461046d5761015d565b806389b0e197146102f957806397bab12f1461030c578063b776fc151461032c578063bd4b8a041461034c578063c298f1e71461036c578063c81a387b1461039c5761015d565b80634714aea7116101255780634714aea714610234578063514fcac71461025657806359cc334a146102765780636490c7a8146102a457806372c8ef0f146102d157806388caabdb146102e45761015d565b80631b2ab9e6146101625780632171197a146101a05780632dabbeed146101c25780632ea3981a146101e2578063420c08d814610204575b600080fd5b34801561016e57600080fd5b5061018261017d3660046132a5565b610480565b60405161019799989796959493929190613889565b60405180910390f35b3480156101ac57600080fd5b506101c06101bb3660046132a5565b61071b565b005b3480156101ce57600080fd5b506101c06101dd3660046132a5565b61090a565b3480156101ee57600080fd5b506101f7610b30565b60405161019791906137ce565b34801561021057600080fd5b5061022461021f3660046132a5565b610c09565b60405161019794939291906137f0565b34801561024057600080fd5b506102496111d2565b60405161019791906137df565b34801561026257600080fd5b506101c06102713660046132a5565b6112fa565b34801561028257600080fd5b506102966102913660046132e4565b61146b565b6040516101979291906139cc565b3480156102b057600080fd5b506102c46102bf3660046132a5565b611552565b604051610197919061397a565b6101c06102df366004613229565b6115fb565b3480156102f057600080fd5b5061024961176c565b6101c0610307366004613130565b6118d5565b34801561031857600080fd5b506101c06103273660046132a5565b611dad565b34801561033857600080fd5b506101c06103473660046132c3565b611ea9565b34801561035857600080fd5b506101c06103673660046132a5565b611f5f565b34801561037857600080fd5b5061038c6103873660046132a5565b61202e565b604051610197949392919061398b565b3480156103a857600080fd5b506103bc6103b73660046132a5565b612192565b60405161019793929190613847565b3480156103d757600080fd5b506103eb6103e63660046132a5565b612641565b6040516101979190613a5c565b34801561040457600080fd5b506101c06104133660046132a5565b6128c3565b34801561042457600080fd5b506101c06104333660046131ec565b612a1a565b34801561044457600080fd5b50610249612a79565b34801561045957600080fd5b506101c0610468366004613229565b612b80565b6101c061047b3660046132a5565b612bf4565b606080600060606000606060008060008060098b8154811061049e57fe5b60009182526020808320600a929092029091018054600160a060020a031683526008825260408084208054825160026101006001841615026000190190921691909104601f810186900486028201860190935282815292955060609390919083018282801561054e5780601f106105235761010080835404028352916020019161054e565b820191906000526020600020905b81548152906001019060200180831161053157829003601f168201915b50505060018601549293505050600160a060020a031633141561058b578254600160a060020a031660009081526008602052604090206002015491505b8260040183600501846002015485600701866006015485878960080160029054906101000a900460ff168a60080160039054906101000a900460ff168880548060200260200160405190810160405280929190818152602001828054801561061257602002820191906000526020600020905b8154815260200190600101908083116105fe575b505050505098508780548060200260200160405190810160405280929190818152602001828054801561066457602002820191906000526020600020905b815481526020019060010190808311610650575b5050895460408051602060026001851615610100026000190190941693909304601f8101849004840282018401909252818152959d508b9450925084019050828280156106f25780601f106106c7576101008083540402835291602001916106f2565b820191906000526020600020905b8154815290600101906020018083116106d557829003601f168201915b505050505095509b509b509b509b509b509b509b509b509b505050509193959799909294969850565b8061075d577fe1f646fb9fbd0df83871429c44bd4b7597a75929f1687574c20d54884fb10f4f60006040516107509190613929565b60405180910390a1610907565b80600114156107ac577faf1c54a4cd9e217317fbed7ea49596cdcacb707ee88460a00fa1c1ca780ea82560007302d91ba6b954cfa50b2dd685212dae7cf26b52b9604051610750929190613937565b80600214156107fb577f8cd0c40718b4685e7ef989908e0dbb7523bbd6db2d870cbb6c78f838074d29196000737e3d972a5916b6dd9b3d518bf8f36d891cecb910604051610750929190613937565b806003141561084a577fee293e8a1e67c7ec955ed966cae51b318c63b933a502845d637175ccf446dc5b6000737e3d972a5916b6dd9b3d518bf8f36d891cecb910604051610750929190613937565b80600414156108af577f60fd9dfa624e807faf3af33c3043aae1ed8c6ebe194cf399a4cf6997b6b7e25c600073bfb21c004eedc4229d30485e09fca941eb76223a7302d91ba6b954cfa50b2dd685212dae7cf26b52b960405161075093929190613952565b8060051415610907577f9830ab083f482a01fcb7d96d20bb979a0220c8d3a95891685c72b26221dea8fe6000737e3d972a5916b6dd9b3d518bf8f36d891cecb9106040516108fe929190613937565b60405180910390a15b50565b60006009828154811061091957fe5b60009182526020909120600a909102018054909150600160a060020a031633146109615760405160e560020a62461bcd028152600401610958906139ec565b60405180910390fd5b600881015460ff16158015610982575060088101546301000000900460ff16155b801561099b57506008810154640100000000900460ff16155b6109ba5760405160e560020a62461bcd028152600401610958906139fc565b42600554603c02826009015401106109e75760405160e560020a62461bcd02815260040161095890613a0c565b600454600282015460035483546040516064840490920290920190920191600160a060020a039091169082156108fc029083906000818181858888f19350505050158015610a39573d6000803e3d6000fd5b506008820154610100900460ff1615610abb5760006006836003015481548110610a5f57fe5b6000918252602090912060079091020180546002850154919250600160a060020a0316906108fc90610a9090612e3f565b6040518115909202916000818181858888f19350505050158015610ab8573d6000803e3d6000fd5b50505b6001820154600160a060020a0316610b0f5760018201546002830154604051600160a060020a039092169181156108fc0291906000818181858888f19350505050158015610b0d573d6000803e3d6000fd5b505b5060006002820155600801805464ff00000000191664010000000017905550565b60606001805480602002602001604051908101604052809291908181526020016000905b82821015610bff5760008481526020908190208301805460408051601f6002600019610100600187161502019094169390930492830185900485028101850190915281815292830182828015610beb5780601f10610bc057610100808354040283529160200191610beb565b820191906000526020600020905b815481529060010190602001808311610bce57829003601f168201915b505050505081526020019060010190610b54565b5050505090505b90565b60608080806000805b600954811015610e4a57600060098281548110610c2b57fe5b90600052602060002090600a02019050878160060154148015610e355750604080516101c0810182528254600160a060020a03908116825260018401541660208083019190915260028401548284015260038401546060830152600484018054845181840281018401909552808552610e359486936080860193919290830182828015610cd757602002820191906000526020600020905b815481526020019060010190808311610cc3575b5050505050815260200160058201805480602002602001604051908101604052809291908181526020018280548015610d2f57602002820191906000526020600020905b815481526020019060010190808311610d1b575b5050509183525050600682015460208083019190915260078301805460408051601f60026000196101006001871615020190941693909304928301859004850281018501825282815294019392830182828015610dcd5780601f10610da257610100808354040283529160200191610dcd565b820191906000526020600020905b815481529060010190602001808311610db057829003601f168201915b5050509183525050600882015460ff8082161515602084015261010082048116151560408401526201000082048116151560608401526301000000820481161515608084015264010000000090910416151560a082015260099091015460c090910152612e56565b15610e41576001909201915b50600101610c12565b50606081604051908082528060200260200182016040528015610e77578160200160208202803883390190505b509050606082604051908082528060200260200182016040528015610ea6578160200160208202803883390190505b509050606083604051908082528060200260200182016040528015610edf57816020015b6060815260200190600190039081610eca5790505b509050606084604051908082528060200260200182016040528015610f0e578160200160208202803883390190505b50600095509050845b6009548110156111c157600060098281548110610f3057fe5b90600052602060002090600a020190508b81600601541480156110a35750604080516101c0810182528254600160a060020a039081168252600184015416602080830191909152600284015482840152600384015460608301526004840180548451818402810184019095528085526110a39486936080860193919290830182828015610cd75760200282019190600052602060002090815481526020019060010190808311610cc3575050505050815260200160058201805480602002602001604051908101604052809291908181526020018280548015610d2f5760200282019190600052602060002090815481526020019060010190808311610d1b575050509183525050600682015460208083019190915260078301805460408051601f60026000196101006001871615020190941693909304928301859004850281018501825282815294019392830182828015610dcd5780601f10610da257610100808354040283529160200191610dcd565b156111b857818688815181106110b557fe5b602090810291909101015280548551600160a060020a03909116908690899081106110dc57fe5b600160a060020a0390921660209283029190910182015260078201805460408051601f60026000196101006001871615020190941693909304928301859004850281018501909152818152928301828280156111795780601f1061114e57610100808354040283529160200191611179565b820191906000526020600020905b81548152906001019060200180831161115c57829003601f168201915b505050505084888151811061118a57fe5b602002602001018190525080600201548388815181106111a657fe5b60209081029190910101526001909601955b50600101610f17565b509299919850965090945092505050565b60606000805b60095481101561124f576000600982815481106111f157fe5b60009182526020909120600a909102018054909150600160a060020a0316331480156112225750600881015460ff16155b801561123a575060088101546301000000900460ff16155b15611246576001909201915b506001016111d8565b50506040805160008082526020820190925260005b6009548110156112f35760006009828154811061127d57fe5b60009182526020909120600a909102018054909150600160a060020a0316331480156112ae5750600881015460ff16155b80156112c6575060088101546301000000900460ff16155b156112ea57818385815181106112d857fe5b60209081029190910101526001909301925b50600101611264565b5091505090565b60006009828154811061130957fe5b60009182526020909120600a909102018054909150600160a060020a03163314801561133a5750600881015460ff16155b801561135257506001810154600160a060020a031615155b61135b57600080fd5b60088101805460ff19166001179055600454600282015460405133929190910180156108fc02916000818181858888f193505050501580156113a1573d6000803e3d6000fd5b506008810154610100900460ff161561142357600060068260030154815481106113c757fe5b6000918252602090912060079091020180546002840154919250600160a060020a0316906108fc906113f890612e3f565b6040518115909202916000818181858888f19350505050158015611420573d6000803e3d6000fd5b50505b80546040517f8cd0c40718b4685e7ef989908e0dbb7523bbd6db2d870cbb6c78f838074d29199161145f918591600160a060020a031690613a7b565b60405180910390a15050565b60606000806006858154811061147d57fe5b906000526020600020906007020160060160008581526020019081526020016000209050806000018160010154818054600181600116156101000203166002900480601f01602080910402602001604051908101604052809291908181526020018280546001816001161561010002031660029004801561153f5780601f106115145761010080835404028352916020019161153f565b820191906000526020600020905b81548152906001019060200180831161152257829003601f168201915b5050505050915092509250509250929050565b60606001828154811061156157fe5b600091825260209182902001805460408051601f60026000196101006001871615020190941693909304928301859004850281018501909152818152928301828280156115ef5780601f106115c4576101008083540402835291602001916115ef565b820191906000526020600020905b8154815290600101906020018083116115d257829003601f168201915b50505050509050919050565b611603612eaa565b3381523461161057600080fd5b3460208083019182526040830186815260608401869052608084018590526006805460018101808355600092909252855160079091027ff652222313e28459528d920b65115c16c04f3efc82aaedc97be59f3f377c0d3f81018054600160a060020a0390931673ffffffffffffffffffffffffffffffffffffffff1990931692909217825594517ff652222313e28459528d920b65115c16c04f3efc82aaedc97be59f3f377c0d4086015591518051919486946116f3937ff652222313e28459528d920b65115c16c04f3efc82aaedc97be59f3f377c0d41909201920190612ee9565b506060820151805161170f916003840191602090910190612ee9565b506080820151816004015560a082015181600501555050507fe1f646fb9fbd0df83871429c44bd4b7597a75929f1687574c20d54884fb10f4f60016006805490500360405161175e9190613a6d565b60405180910390a150505050565b60606000805b60095481101561180d5760006009828154811061178b57fe5b90600052602060002090600a02019050600060068260030154815481106117ae57fe5b600091825260209091206007909102018054909150600160a060020a0316331480156117df5750600882015460ff16155b80156117f7575060088201546301000000900460ff16155b15611803576001909301925b5050600101611772565b50506040805160008082526020820190925260005b6009548110156112f35760006009828154811061183b57fe5b90600052602060002090600a020190506000600682600301548154811061185e57fe5b600091825260209091206007909102018054909150600160a060020a03163314801561188f5750600882015460ff16155b80156118a7575060088201546301000000900460ff16155b156118cb57828486815181106118b957fe5b60209081029190910101526001909401935b5050600101611822565b6118dd612f67565b3381526080810186905260a0810185905260c0810184905260e0810183905260068054600091908490811061190e57fe5b60009182526020918290206040805160c0810182526007939093029091018054600160a060020a03168352600180820154848601526002808301805485516101009482161594909402600019011691909104601f81018790048702830187018552808352929650611a8b958794860193908301828280156119d05780601f106119a5576101008083540402835291602001916119d0565b820191906000526020600020905b8154815290600101906020018083116119b357829003601f168201915b505050918352505060038201805460408051602060026001851615610100026000190190941693909304601f8101849004840282018401909252818152938201939291830182828015611a645780601f10611a3957610100808354040283529160200191611a64565b820191906000526020600020905b815481529060010190602001808311611a4757829003601f168201915b50505050508152602001600482015481526020016005820154815250508360400151612e8a565b611aaa5760405160e560020a62461bcd02815260040161095890613a4c565b606082018390526000805b8851811015611b2a57878181518110611aca57fe5b602002602001015160068681548110611adf57fe5b906000526020600020906007020160060160008b8481518110611afe57fe5b602002602001015181526020019081526020016000206001015402820191508080600101915050611ab5565b5060045481013414611b515760405160e560020a62461bcd02815260040161095890613a2c565b60408301818152426101a085015260098054600181018083556000929092528551600a9091027f6e1540171b6c0c960b71a7020d9f60077f6af931a8bbf590da0223dacf75c7af81018054600160a060020a0393841673ffffffffffffffffffffffffffffffffffffffff199182161782556020808a01517f6e1540171b6c0c960b71a7020d9f60077f6af931a8bbf590da0223dacf75c7b0850180549190961692169190911790935593517f6e1540171b6c0c960b71a7020d9f60077f6af931a8bbf590da0223dacf75c7b182015560608701517f6e1540171b6c0c960b71a7020d9f60077f6af931a8bbf590da0223dacf75c7b282015560808701518051939488949093611c85937f6e1540171b6c0c960b71a7020d9f60077f6af931a8bbf590da0223dacf75c7b301920190612fda565b5060a08201518051611ca1916005840191602090910190612fda565b5060c0820151600682015560e08201518051611cc7916007840191602090910190612ee9565b506101008281015160088301805461012086015161014087015161016088015161018089015160ff199094169515159590951761ff0019169115159095021762ff0000191662010000941515949094029390931763ff00000019166301000000921515929092029190911764ff000000001916640100000000921515929092029190911790556101a0909101516009918201555483546040517faf1c54a4cd9e217317fbed7ea49596cdcacb707ee88460a00fa1c1ca780ea8259350611d9b926000190191600160a060020a031690613a7b565b60405180910390a15050505050505050565b600060098281548110611dbc57fe5b60009182526020909120600a909102018054909150600160a060020a03163314611de557600080fd5b60088101546301000000900460ff16158015611e065750600881015460ff16155b8015611e1e57506001810154600160a060020a031615155b611e2757600080fd5b60088101805463ff00000019166301000000179055600060028201819055611e4e81612e3f565b60018301546004546003546002860154604051949550600160a060020a03909316936064840490910290920101830180156108fc02916000818181858888f19350505050158015611ea3573d6000803e3d6000fd5b50505050565b600060068481548110611eb857fe5b600091825260209091206007909102018054909150600160a060020a03163314611ee157600080fd5b604080516060810182528481526020808201859052600082840181905260058501548152600685018252929092208151805192939192611f249284920190612ee9565b5060208201516001828101919091556040909201516002909101805460ff191691151591909117905560059190910180549091019055505050565b600060098281548110611f6e57fe5b90600052602060002090600a0201905060006006826003015481548110611f9157fe5b600091825260209091206007909102018054909150600160a060020a03163314611fba57600080fd5b60088201805461ff0019166101001790556002820154611fd990612e3f565b60018201805491909103905581546040517fee293e8a1e67c7ec955ed966cae51b318c63b933a502845d637175ccf446dc5b91612021918691600160a060020a031690613a7b565b60405180910390a1505050565b60608060008060006006868154811061204357fe5b600091825260209182902060046007909202019081015460058201546002808401805460408051601f6000196101006001861615020190931694909404918201889004880284018801905280835294965094600387019486918301828280156120ed5780601f106120c2576101008083540402835291602001916120ed565b820191906000526020600020905b8154815290600101906020018083116120d057829003601f168201915b5050865460408051602060026001851615610100026000190190941693909304601f81018490048402820184019092528181529599508894509250840190508282801561217b5780601f106121505761010080835404028352916020019161217b565b820191906000526020600020905b81548152906001019060200180831161215e57829003601f168201915b505050505092509450945094509450509193509193565b606080806000805b600654811015612351576000600682815481106121b357fe5b9060005260206000209060070201905086816004015414801561233c57506040805160c0810182528254600160a060020a03168152600180840154602080840191909152600280860180548651601f60001996831615610100029690960190911692909204938401839004830282018301865283825261233c958794908601938301828280156122845780601f1061225957610100808354040283529160200191612284565b820191906000526020600020905b81548152906001019060200180831161226757829003601f168201915b505050918352505060038201805460408051602060026001851615610100026000190190941693909304601f81018490048402820184019092528181529382019392918301828280156123185780601f106122ed57610100808354040283529160200191612318565b820191906000526020600020905b8154815290600101906020018083116122fb57829003601f168201915b50505050508152602001600482015481526020016005820154815250506064612e8a565b15612348576001909201915b5060010161219a565b5060608160405190808252806020026020018201604052801561237e578160200160208202803883390190505b5090506060826040519080825280602002602001820160405280156123b757816020015b60608152602001906001900390816123a25790505b5090506060836040519080825280602002602001820160405280156123f057816020015b60608152602001906001900390816123db5790505b50600094509050835b6006548110156126325760006006828154811061241257fe5b906000526020600020906007020190508981600401541480156124b857506040805160c0810182528254600160a060020a03168152600180840154602080840191909152600280860180548651601f6000199683161561010002969096019091169290920493840183900483028201830186528382526124b8958794908601938301828280156122845780601f1061225957610100808354040283529160200191612284565b1561262957818587815181106124ca57fe5b60209081029190910181019190915260028281018054604080516001831615610100026000190190921693909304601f8101859004850282018501909352828152929091908301828280156125605780601f1061253557610100808354040283529160200191612560565b820191906000526020600020905b81548152906001019060200180831161254357829003601f168201915b505050505084878151811061257157fe5b60209081029190910181019190915260038201805460408051601f60026000196101006001871615020190941693909304928301859004850281018501909152818152928301828280156126065780601f106125db57610100808354040283529160200191612606565b820191906000526020600020905b8154815290600101906020018083116125e957829003601f168201915b505050505083878151811061261757fe5b60209081029190910101526001909501945b506001016123f9565b50919790965090945092505050565b612649612f67565b60006009838154811061265857fe5b60009182526020909120600a909102018054909150600160a060020a03163314806126b5575033600160a060020a0316600682600301548154811061269957fe5b6000918252602090912060079091020154600160a060020a0316145b6126be57600080fd5b600983815481106126cb57fe5b6000918252602091829020604080516101c081018252600a9093029091018054600160a060020a03908116845260018201541683850152600281015483830152600381015460608401526004810180548351818702810187019094528084529394919360808601939283018282801561276357602002820191906000526020600020905b81548152602001906001019080831161274f575b50505050508152602001600582018054806020026020016040519081016040528092919081815260200182805480156127bb57602002820191906000526020600020905b8154815260200190600101908083116127a7575b5050509183525050600682015460208083019190915260078301805460408051601f600260001961010060018716150201909416939093049283018590048502810185018252828152940193928301828280156128595780601f1061282e57610100808354040283529160200191612859565b820191906000526020600020905b81548152906001019060200180831161283c57829003601f168201915b5050509183525050600882015460ff8082161515602084015261010082048116151560408401526201000082048116151560608401526301000000820481161515608084015264010000000090910416151560a082015260099091015460c0909101529392505050565b6000600982815481106128d257fe5b60009182526020909120600a909102016001810154909150600160a060020a031633146129145760405160e560020a62461bcd028152600401610958906139ec565b600881015460ff1615801561293257506008810154610100900460ff165b80156129495750600881015462010000900460ff16155b6129685760405160e560020a62461bcd02815260040161095890613a3c565b60088101805462ff000019166201000017905560038101546006805460009290811061299057fe5b60009182526020822060079091020180546002850154604051929450600160a060020a039091169281156108fc029290818181858888f193505050501580156129dd573d6000803e3d6000fd5b5081546040517f9830ab083f482a01fcb7d96d20bb979a0220c8d3a95891685c72b26221dea8fe91612021918691600160a060020a031690613a7b565b600054600160a060020a03163314612a3157600080fd5b600180548082018083556000929092528251612a74917fb10e2d527612073b26eecdfd717e6a320cf44b4afac2b0732d9fcbe2b7fa0cf601906020850190612ee9565b505050565b60606000805b600954811015612ae957600060098281548110612a9857fe5b600091825260209091206001600a9092020190810154909150600160a060020a031633148015612ad4575060088101546301000000900460ff16155b15612ae0576001909201915b50600101612a7f565b50506040805160008082526020820190925260005b6009548110156112f357600060098281548110612b1757fe5b600091825260209091206001600a9092020190810154909150600160a060020a031633148015612b53575060088101546301000000900460ff16155b15612b775781838581518110612b6557fe5b60209081029190910101526001909301925b50600101612afe565b612b88613014565b5060408051606081018252848152602080820185905281830184905233600090815260088252929092208151805192938493612bc79284920190612ee9565b506020828101518051612be09260018501920190612ee9565b506040820151816002015590505050505050565b600060098281548110612c0357fe5b6000918252602091829020604080516101c081018252600a9093029091018054600160a060020a0390811684526001820154168385015260028101548383015260038101546060840152600481018054835181870281018701909452808452919550612d699486936080860193909291830182828015610cd75760200282019190600052602060002090815481526020019060010190808311610cc3575050505050815260200160058201805480602002602001604051908101604052809291908181526020018280548015610d2f5760200282019190600052602060002090815481526020019060010190808311610d1b575050509183525050600682015460208083019190915260078301805460408051601f60026000196101006001871615020190941693909304928301859004850281018501825282815294019392830182828015610dcd5780601f10610da257610100808354040283529160200191610dcd565b612d7257600080fd5b60006003546064836002015481612d8557fe5b04028260020154019050803414612db15760405160e560020a62461bcd02815260040161095890613a1c565b60018201805473ffffffffffffffffffffffffffffffffffffffff191633179055600382015460068054600092908110612de757fe5b60009182526020909120600185015460079092020180546040519193507f60fd9dfa624e807faf3af33c3043aae1ed8c6ebe194cf399a4cf6997b6b7e25c9261175e928892600160a060020a03928316921690613a89565b600060025460648381612e4e57fe5b040292915050565b60008161012001518015612e7557506020820151600160a060020a0316155b8015612e845750816101000151155b92915050565b600060025460648381612e9957fe5b040283602001511015905092915050565b6040518060c001604052806000600160a060020a0316815260200160008152602001606081526020016060815260200160008152602001600081525090565b828054600181600116156101000203166002900490600052602060002090601f016020900481019282601f10612f2a57805160ff1916838001178555612f57565b82800160010185558215612f57579182015b82811115612f57578251825591602001919060010190612f3c565b50612f63929150613035565b5090565b604080516101c08101825260008082526020820181905291810182905260608082018390526080820181905260a0820181905260c0820183905260e0820152610100810182905261012081018290526101408101829052610160810182905261018081018290526101a081019190915290565b828054828255906000526020600020908101928215612f575791602002820182811115612f57578251825591602001919060010190612f3c565b60405180606001604052806060815260200160608152602001600081525090565b610c0691905b80821115612f63576000815560010161303b565b600082601f83011261306057600080fd5b813561307361306e82613abe565b613a97565b9150818183526020840193506020810190508385602084028201111561309857600080fd5b60005b838110156130c457816130ae888261311d565b845250602092830192919091019060010161309b565b5050505092915050565b600082601f8301126130df57600080fd5b81356130ed61306e82613adf565b9150808252602083016020830185838301111561310957600080fd5b613114838284613b57565b50505092915050565b60006131298235610c06565b9392505050565b600080600080600060a0868803121561314857600080fd5b853567ffffffffffffffff81111561315f57600080fd5b61316b8882890161304f565b955050602086013567ffffffffffffffff81111561318857600080fd5b6131948882890161304f565b94505060406131a58882890161311d565b935050606086013567ffffffffffffffff8111156131c257600080fd5b6131ce888289016130ce565b92505060806131df8882890161311d565b9150509295509295909350565b6000602082840312156131fe57600080fd5b813567ffffffffffffffff81111561321557600080fd5b613221848285016130ce565b949350505050565b60008060006060848603121561323e57600080fd5b833567ffffffffffffffff81111561325557600080fd5b613261868287016130ce565b935050602084013567ffffffffffffffff81111561327e57600080fd5b61328a868287016130ce565b925050604061329b8682870161311d565b9150509250925092565b6000602082840312156132b757600080fd5b6000613221848461311d565b6000806000606084860312156132d857600080fd5b6000613261868661311d565b600080604083850312156132f757600080fd5b6000613303858561311d565b92505060206133148582860161311d565b9150509250929050565b600061332a8383613359565b505060200190565b600061312983836134c9565b600061332a83836137c5565b61335381613b36565b82525050565b61335381613b1a565b600061336d82613b0d565b6133778185613b11565b935061338283613b07565b60005b828110156133ad5761339886835161331e565b95506133a382613b07565b9150600101613385565b5093949350505050565b60006133c282613b0d565b6133cc8185613b11565b9350836020820285016133de85613b07565b60005b848110156134155783830388526133f9838351613332565b925061340482613b07565b6020989098019791506001016133e1565b50909695505050505050565b600061342c82613b0d565b6134368185613b11565b935061344183613b07565b60005b828110156133ad5761345786835161333e565b955061346282613b07565b9150600101613444565b600061347782613b0d565b6134818185613b11565b935061348c83613b07565b60005b828110156133ad576134a286835161333e565b95506134ad82613b07565b915060010161348f565b61335381613b25565b61335381613b41565b60006134d482613b0d565b6134de8185613b11565b93506134ee818560208601613b63565b6134f781613b8f565b9093019392505050565b600061350e601083613b11565b7f4163636573732072656a65637465642e00000000000000000000000000000000815260200192915050565b6000613547601883613b11565b7f496e76616c6964207265636c61696d20726571756573742e0000000000000000815260200192915050565b6000613580601d83613b11565b7f547279206166746572206d6178206f72646572206475726174696f6e2e000000815260200192915050565b60006135b9601683613b11565b7f4e6f7420656e6f7567682066756e6420676976656e2e00000000000000000000815260200192915050565b60006135f2601583613b11565b7f4e6f7420656e6f7567682066756e642073656e742e0000000000000000000000815260200192915050565b600061362b601083613b11565b7f496e76616c696420726571756573742e00000000000000000000000000000000815260200192915050565b6000613664601f83613b11565b7f52657374617572616e7420697320756e61626c6520746f2064656c6976657200815260200192915050565b80516000906101c08401906136a58582613359565b5060208301516136b86020860182613359565b5060408301516136cb60408601826137c5565b5060608301516136de60608601826137c5565b50608083015184820360808601526136f6828261346c565b91505060a083015184820360a0860152613710828261346c565b91505060c083015161372560c08601826137c5565b5060e083015184820360e086015261373d82826134c9565b9150506101008301516137546101008601826134b7565b506101208301516137696101208601826134b7565b5061014083015161377e6101408601826134b7565b506101608301516137936101608601826134b7565b506101808301516137a86101808601826134b7565b506101a08301516137bd6101a08601826137c5565b509392505050565b61335381610c06565b6020808252810161312981846133b7565b602080825281016131298184613421565b608080825281016138018187613421565b905081810360208301526138158186613362565b9050818103604083015261382981856133b7565b9050818103606083015261383d8184613421565b9695505050505050565b606080825281016138588186613421565b9050818103602083015261386c81856133b7565b9050818103604083015261388081846133b7565b95945050505050565b610120808252810161389b818c613421565b905081810360208301526138af818b613421565b90506138be604083018a6137c5565b81810360608301526138d081896134c9565b90506138df60808301886137c5565b81810360a08301526138f181876134c9565b905061390060c08301866137c5565b61390d60e08301856134b7565b61391b6101008301846134b7565b9a9950505050505050505050565b60208101612e8482846134c0565b6040810161394582856134c0565b613129602083018461334a565b6060810161396082866134c0565b61396d602083018561334a565b613221604083018461334a565b6020808252810161312981846134c9565b6080808252810161399c81876134c9565b905081810360208301526139b081866134c9565b90506139bf60408301856137c5565b61388060608301846137c5565b604080825281016139dd81856134c9565b905061312960208301846137c5565b60208082528101612e8481613501565b60208082528101612e848161353a565b60208082528101612e8481613573565b60208082528101612e84816135ac565b60208082528101612e84816135e5565b60208082528101612e848161361e565b60208082528101612e8481613657565b602080825281016131298184613690565b60208101612e8482846137c5565b6040810161394582856137c5565b6060810161396082866137c5565b60405181810167ffffffffffffffff81118282101715613ab657600080fd5b604052919050565b600067ffffffffffffffff821115613ad557600080fd5b5060209081020190565b600067ffffffffffffffff821115613af657600080fd5b506020601f91909101601f19160190565b60200190565b5190565b90815260200190565b6000612e8482613b2a565b151590565b600160a060020a031690565b6000612e8482613b4c565b6000612e8482610c06565b6000612e8482613b1a565b82818337506000910152565b60005b83811015613b7e578181015183820152602001613b66565b83811115611ea35750506000910152565b601f01601f19169056fea265627a7a723058203f8f1e1fc3e0b5d181be6c20cfb65eb0cc6d6928f8d844b06159ddf07621e3a76c6578706572696d656e74616cf50037",
  "source": "pragma solidity ^0.5.7;\npragma experimental ABIEncoderV2;\n// import \"github.com/ethereum/dapp-bin/library/stringUtils.sol\";\n\ncontract Food {\n    struct Item {\n        string name;\n        uint256 price;\n        bool disabled;\n    }\n\n    struct Restaurant {\n        address payable owner;\n        uint256 fund;\n        string name;\n        string addr;\n        uint256 areaId;\n        uint256 itemId;\n        mapping(uint256=> Item) items;\n        // Item[] items;\n    }\n\n    struct User {\n        string name;\n        string addr;\n        uint256 phoneNo;\n    }\n\n    struct Order {\n        address payable orderer;\n        address payable deliverer;\n        uint256 fund;\n        uint256 restaurantId;\n        uint256[] items;\n        uint256[] quantities;\n        uint256 areaId;\n        string fullAddress;\n        bool isCanceled;\n        bool restaurantApproved;\n        bool pickupConfirmed;\n        bool orderReceived;\n        bool reclaimed;\n        uint256 orderTime;\n    }\n    \n    // Admin methods\n    address admin = msg.sender;\n    string[] areas;\n    uint commissionRate = 10;\n    uint lockedRate = 50;\n    uint256 deliveryFee = 100;\n    uint maxDeliveryTime = 60;\n    \n    modifier isAdmin() {\n      require(msg.sender == admin);\n      _;\n    } \n    \n    function addArea(string memory area) public isAdmin {\n        // require(!checkAreaExists(area), \"Area already exists.\");\n        areas.push(area);\n    }\n    \n    function getArea(uint256 id) public view returns(string memory area){\n        return areas[id];\n    }\n    \n    function getAreas() public view returns(string[] memory){\n        return areas;\n    }\n    \n    // function checkAreaExists(string memory area) private view returns(bool found){\n    //     for (uint i=0; i<areas.length; i++) {\n    //         if(StringUtils.equal(areas[i], area)) return true;\n    //     }\n    //     return false;\n    // } \n    \n    \n    // Restaurant methods\n    // mapping(uint256 => Restaurant) restaurants;\n    Restaurant[] restaurants;\n    uint256 restaurantId;\n    \n    function addRestaurant(string memory name, string memory addr, uint256 areaId) \n    public payable {\n        Restaurant memory restaurant;\n        restaurant.owner = msg.sender;\n        require(msg.value > 0);\n        restaurant.fund = msg.value;\n        restaurant.name = name;\n        restaurant.addr = addr;\n        restaurant.areaId = areaId;\n        restaurants.push(restaurant);\n        // event\n        emit newRestaurant(restaurants.length -1);\n    }\n    \n    function getRestaurant(uint256 id) public view \n    returns(string memory name, string memory addr, uint256 areaId, uint256 itemCount) {\n        Restaurant storage restaurant = restaurants[id];\n        return (restaurant.name, restaurant.addr, restaurant.areaId, restaurant.itemId);\n    }\n    \n    function addItem(uint256 id, string memory name, uint256 price) public {\n        Restaurant storage restaurant = restaurants[id];\n        require(restaurant.owner == msg.sender);\n        restaurant.items[restaurant.itemId] = Item(name, price, false);\n        restaurant.itemId++;\n    }\n    \n    function getItem(uint256 restId, uint256 itemId) public view\n    returns (string memory name, uint256 price){\n        Item storage item = restaurants[restId].items[itemId];\n        return (item.name, item.price);\n    }\n    \n    \n    // User mathods\n    mapping(address => User) users;\n    \n    function register(string memory name, string memory addr, uint256 phoneNo) public {\n        User memory user = User(name, addr, phoneNo);\n        users[msg.sender] = user;\n    }\n    \n    // Orderer methods\n    Order[] orders;\n    \n    function placeOrder(uint256[] memory items, uint256[] memory quantities, uint256 areaId, \n    string memory fullAddress, uint256 restId) public payable {\n        // add requires\n        Order memory order;\n        order.orderer = msg.sender;\n        order.items = items;\n        order.quantities = quantities;\n        order.areaId = areaId;\n        order.fullAddress = fullAddress;\n        \n        Restaurant storage restaurant = restaurants[restId];\n        require(restaurantIsAvailable(restaurant, order.fund), \"Restaurant is unable to deliver\");\n        order.restaurantId = restId;\n        // calculate prices\n        uint256 price = 0;\n        for(uint i=0; i <items.length; i++){\n            price += restaurants[restId].items[items[i]].price * quantities[i];\n        }\n        require(msg.value == price + deliveryFee , \"Not enough fund sent.\");\n        \n        order.fund = price;\n        order.orderTime = now;\n        orders.push(order);\n        //event\n        emit newOrder(orders.length -1, restaurant.owner);\n    }\n    \n    function getRestaurantOrders() public view returns(uint256[] memory){\n        uint256 totalMatch = 0;\n        for(uint256 i=0; i< orders.length; i++){\n            Order storage order = orders[i];\n            Restaurant storage restaurant = restaurants[order.restaurantId];\n            if(restaurant.owner == msg.sender && !order.isCanceled && !order.orderReceived){\n                totalMatch++;\n            }\n        }\n        totalMatch = 0;\n        uint256[] memory selected = new uint256[](totalMatch);\n        for(uint256 i=0; i< orders.length; i++){\n            Order storage order = orders[i];\n            Restaurant storage restaurant = restaurants[order.restaurantId];\n            if(restaurant.owner == msg.sender && !order.isCanceled && !order.orderReceived){\n                selected[totalMatch] = i;\n                totalMatch++;\n            }\n        }\n        \n        return selected;\n    }\n    \n    function getDelivererOrders() public view \n    returns(uint256[] memory){\n        uint256 totalMatch = 0;\n        for(uint256 i=0; i< orders.length; i++){\n            Order storage order = orders[i];\n            if(order.deliverer == msg.sender && !order.orderReceived){\n                totalMatch++;\n            }\n        }\n        totalMatch = 0;\n        uint256[] memory selected = new uint256[](totalMatch);\n        for(uint256 i=0; i< orders.length; i++){\n            Order storage order = orders[i];\n            if(order.deliverer == msg.sender  && !order.orderReceived){\n                selected[totalMatch] = i;\n                totalMatch++;\n            }\n        }\n        \n        return selected;\n    }\n    \n    function getDelivererOrder(uint256 orderId) public view \n    returns(uint256[] memory, uint256[] memory, uint256, string memory, \n            uint256, string memory, uint256, bool, bool){\n        Order storage order = orders[orderId];\n        uint256 phoneNo = 0;\n        string memory name = users[order.orderer].name;\n        if(order.deliverer == msg.sender){\n            phoneNo = users[order.orderer].phoneNo;\n        }\n        \n        return (order.items, order.quantities, order.fund, order.fullAddress, \n                order.areaId, name, phoneNo, order.pickupConfirmed, order.orderReceived);\n    }\n    \n    function getOrdererOrders() public view returns(uint256[] memory){\n        uint256 totalMatch = 0;\n        for(uint256 i=0; i< orders.length; i++){\n            Order storage order = orders[i];\n            if(order.orderer == msg.sender && !order.isCanceled && !order.orderReceived){\n                totalMatch++;\n            }\n        }\n        totalMatch = 0;\n        uint256[] memory selected = new uint256[](totalMatch);\n        for(uint256 i=0; i< orders.length; i++){\n            Order storage order = orders[i];\n            if(order.orderer == msg.sender && !order.isCanceled && !order.orderReceived){\n                selected[totalMatch] = i;\n                totalMatch++;\n            }\n        }\n        \n        return selected;\n    }\n    \n    function getOrder(uint256 orderId) public view returns(Order memory){\n        Order storage order = orders[orderId];\n        require(order.orderer == msg.sender || restaurants[order.restaurantId].owner == msg.sender);\n        return orders[orderId];\n    }\n    \n    function cancelOrder(uint256 orderId) public {\n        Order storage order = orders[orderId];\n        require(order.orderer == msg.sender && !order.isCanceled \n                && order.deliverer != address(0));\n        order.isCanceled = true;\n        // transfer fund\n        msg.sender.transfer(order.fund + deliveryFee);\n        if(order.restaurantApproved){\n            // unlock deliverer commission\n            Restaurant storage restaurant = restaurants[order.restaurantId];\n            restaurant.owner.transfer(calculateCommission(order.fund));\n        }\n        // event\n        emit orderCanceled(orderId, order.orderer);\n    }\n    \n    function receiveOrder(uint256 orderId) public {\n        Order storage order = orders[orderId];\n        require(order.orderer == msg.sender);\n        require(!order.orderReceived && !order.isCanceled && order.deliverer != address(0));\n        order.orderReceived = true;\n        order.fund = 0;\n        // transfer\n        uint256 commission = calculateCommission(order.fund);\n        order.deliverer.transfer(order.fund + (order.fund/100) * lockedRate + deliveryFee + commission);\n    }\n    \n    function approveOrder(uint256 orderId) public {\n        Order storage order = orders[orderId];\n        Restaurant storage restaurant = restaurants[order.restaurantId];\n        \n        require(restaurant.owner == msg.sender);\n        order.restaurantApproved = true;\n        // lock deliverer commission\n        restaurant.fund -= calculateCommission(order.fund);\n        // event\n        emit orderApproved(orderId, order.orderer);\n    }\n    \n    function calculateCommission(uint256 fund) private view returns(uint256){\n        return (fund/100)* commissionRate;\n    }\n    \n    function searchAreaRestaurant(uint256 areaId) public view \n    returns(uint256[] memory, string[] memory, string[] memory) {\n        uint256 totalMatch = 0;\n        for(uint256 i=0; i<restaurants.length; i++){\n            Restaurant storage restaurant = restaurants[i];\n            if(restaurant.areaId == areaId  && restaurantIsAvailable(restaurant, 100)){\n                totalMatch++;\n            }\n        }\n        uint256[] memory restIds = new uint256[](totalMatch);\n        string[] memory names = new string[](totalMatch);\n        string[] memory fullAddrs = new string[](totalMatch);\n\n        totalMatch = 0;\n        for(uint256 i=0; i<restaurants.length; i++){\n            Restaurant storage restaurant = restaurants[i];\n            if(restaurant.areaId == areaId  && restaurantIsAvailable(restaurant, 100)){\n                restIds[totalMatch] = i;\n                names[totalMatch] = restaurant.name;\n                fullAddrs[totalMatch] = restaurant.addr;\n                totalMatch++;\n            }\n        }\n        \n        return(restIds, names, fullAddrs);\n    }\n    \n    function restaurantIsAvailable(Restaurant memory restaurant, uint256 price) private view returns(bool){\n        return restaurant.fund >= (price/100)* commissionRate;\n    }\n    \n    function reclaim(uint256 orderId) public {\n        Order storage order = orders[orderId];\n        require(msg.sender == order.orderer, \"Access rejected.\");\n        require(!order.isCanceled && !order.orderReceived && \n                !order.reclaimed, \"Invalid reclaim request.\");\n        require(order.orderTime + maxDeliveryTime * 1 minutes < now, \"Try after max order duration.\");\n        \n        uint256 ordererAmount = (order.fund/100) * lockedRate + order.fund + deliveryFee; // deliverer locked + oderer locked. \n        order.orderer.transfer(ordererAmount);\n        \n        if(order.restaurantApproved){\n            // unlock deliverer commission\n            Restaurant storage restaurant = restaurants[order.restaurantId];\n            restaurant.owner.transfer(calculateCommission(order.fund));\n        }\n        if(order.deliverer == address(0)){\n            order.deliverer.transfer(order.fund);\n        }\n        order.fund = 0;\n        order.reclaimed = true;\n    }\n    \n    \n    // Deliverer methods\n    function orderIsAvailable(Order memory order) private pure returns(bool){\n        return order.restaurantApproved \n            && order.deliverer == address(0) && !order.isCanceled;\n    }\n    \n    function searchAreaOrder(uint256 areaId) public view\n    returns(uint256[] memory, address[] memory, string[] memory, uint256[] memory){\n        uint256 totalMatch = 0;\n        for(uint256 i=0; i<orders.length; i++){\n            Order storage order = orders[i];\n            if(order.areaId == areaId && orderIsAvailable(order)){\n                   totalMatch++;\n            }\n        }\n        \n        uint256[] memory orderIds = new uint256[](totalMatch);\n        address[] memory orderers = new address[](totalMatch);\n        string[] memory fullAddrs = new string[](totalMatch);\n        uint256[] memory prices = new uint256[](totalMatch);\n        \n        totalMatch = 0;\n        for(uint256 i=0; i<orders.length; i++){\n            Order storage order = orders[i];\n            if(order.areaId == areaId && orderIsAvailable(order)){\n                orderIds[totalMatch] =i;\n                orderers[totalMatch] = order.orderer;\n                fullAddrs[totalMatch] = order.fullAddress;\n                prices[totalMatch] = order.fund;\n                totalMatch++;\n            }\n        }\n        \n        return (orderIds, orderers, fullAddrs, prices);\n    }\n    \n    function acceptOrder(uint256 orderId) public payable {\n        Order storage order = orders[orderId];\n        require(orderIsAvailable(order));\n        \n        uint256 expected = order.fund + (order.fund/100)* lockedRate;\n        require(msg.value ==  expected, \"Not enough fund given.\");\n        \n        order.deliverer =  msg.sender;\n        // event \n        Restaurant storage restaurant = restaurants[order.restaurantId];\n        emit orderAccepted(orderId, order.deliverer, restaurant.owner);\n    }\n    \n    function confirmPickup(uint256 orderId) public {\n        Order storage order = orders[orderId];\n        require(msg.sender == order.deliverer, \"Access rejected.\");\n        require(!order.isCanceled && order.restaurantApproved && !order.pickupConfirmed, \"Invalid request.\");\n        \n        order.pickupConfirmed = true;\n        Restaurant storage restaurant = restaurants[order.restaurantId];\n        restaurant.owner.transfer(order.fund);\n        // event \n        emit orderPickedup(orderId, order.orderer);\n    }\n    \n    event newRestaurant(uint256 restaurantId);\n    event newOrder(uint256 orderId, address restaurant);\n    event orderCanceled(uint256 orderId, address orderer);\n    event orderApproved(uint256 orderId, address orderer);\n    event orderAccepted(uint256 orderId, address deliverer, address restaurant);\n    event orderPickedup(uint256 orderId, address orderer);\n    // event orderDelivered(uint256 orderId, address orderer);\n    \n    function genEvent(uint option) public {\n        if(option == 0){\n            emit newRestaurant(0);\n        } else if(option == 1){\n            emit newOrder(0, 0x02d91Ba6b954cfA50b2Dd685212dAE7Cf26B52B9);\n        } else if (option == 2){\n            emit orderCanceled(0, 0x7E3d972A5916B6dD9b3d518BF8f36D891CECB910);\n        } else if (option == 3){\n            emit orderApproved(0, 0x7E3d972A5916B6dD9b3d518BF8f36D891CECB910);\n        } else if(option == 4){\n            emit orderAccepted(0, 0xbfb21c004EEDc4229d30485E09fcA941eB76223A, 0x02d91Ba6b954cfA50b2Dd685212dAE7Cf26B52B9);\n        } else if(option == 5){\n            emit orderPickedup(0, 0x7E3d972A5916B6dD9b3d518BF8f36D891CECB910);\n        } \n        // else if(option == 5){\n        //     emit orderDelivered(0, 0x7E3d972A5916B6dD9b3d518BF8f36D891CECB910);\n        // }\n    }\n\n}",
  "sourcePath": "/Users/user/workplace/foodie_chainsafe/contracts/Food.sol",
  "compiler": {
    "name": "solc",
    "version": "0.5.7+commit.6da8b019.Emscripten.clang"
  },
  "schemaVersion": "3.0.11",
  "updatedAt": "2019-09-17T18:34:34.313Z",
  "devdoc": {
    "methods": {}
  },
  "userdoc": {
    "methods": {}
  }
}